{
  "contractName": "PokeStop",
  "abi": [
    {
      "inputs": [],
      "stateMutability": "nonpayable",
      "type": "constructor"
    },
    {
      "anonymous": false,
      "inputs": [
        {
          "indexed": true,
          "internalType": "address",
          "name": "owner",
          "type": "address"
        },
        {
          "indexed": true,
          "internalType": "address",
          "name": "spender",
          "type": "address"
        },
        {
          "indexed": false,
          "internalType": "uint256",
          "name": "amount",
          "type": "uint256"
        }
      ],
      "name": "Approval",
      "type": "event"
    },
    {
      "anonymous": false,
      "inputs": [
        {
          "indexed": true,
          "internalType": "address",
          "name": "from",
          "type": "address"
        },
        {
          "indexed": true,
          "internalType": "address",
          "name": "to",
          "type": "address"
        },
        {
          "indexed": false,
          "internalType": "uint256",
          "name": "amount",
          "type": "uint256"
        }
      ],
      "name": "Transfer",
      "type": "event"
    },
    {
      "inputs": [
        {
          "internalType": "address",
          "name": "",
          "type": "address"
        }
      ],
      "name": "HealthPotion",
      "outputs": [
        {
          "internalType": "uint256",
          "name": "",
          "type": "uint256"
        }
      ],
      "stateMutability": "view",
      "type": "function",
      "constant": true
    },
    {
      "inputs": [],
      "name": "HealthPrice",
      "outputs": [
        {
          "internalType": "uint256",
          "name": "",
          "type": "uint256"
        }
      ],
      "stateMutability": "view",
      "type": "function",
      "constant": true
    },
    {
      "inputs": [
        {
          "internalType": "address",
          "name": "",
          "type": "address"
        }
      ],
      "name": "MachineBalance",
      "outputs": [
        {
          "internalType": "uint256",
          "name": "",
          "type": "uint256"
        }
      ],
      "stateMutability": "view",
      "type": "function",
      "constant": true
    },
    {
      "inputs": [
        {
          "internalType": "address",
          "name": "",
          "type": "address"
        }
      ],
      "name": "ManaPotion",
      "outputs": [
        {
          "internalType": "uint256",
          "name": "",
          "type": "uint256"
        }
      ],
      "stateMutability": "view",
      "type": "function",
      "constant": true
    },
    {
      "inputs": [],
      "name": "ManaPrice",
      "outputs": [
        {
          "internalType": "uint256",
          "name": "",
          "type": "uint256"
        }
      ],
      "stateMutability": "view",
      "type": "function",
      "constant": true
    },
    {
      "inputs": [
        {
          "internalType": "address",
          "name": "",
          "type": "address"
        },
        {
          "internalType": "address",
          "name": "",
          "type": "address"
        }
      ],
      "name": "_allowances",
      "outputs": [
        {
          "internalType": "uint256",
          "name": "",
          "type": "uint256"
        }
      ],
      "stateMutability": "view",
      "type": "function",
      "constant": true
    },
    {
      "inputs": [
        {
          "internalType": "address",
          "name": "",
          "type": "address"
        }
      ],
      "name": "_balances",
      "outputs": [
        {
          "internalType": "uint256",
          "name": "",
          "type": "uint256"
        }
      ],
      "stateMutability": "view",
      "type": "function",
      "constant": true
    },
    {
      "inputs": [],
      "name": "_name",
      "outputs": [
        {
          "internalType": "string",
          "name": "",
          "type": "string"
        }
      ],
      "stateMutability": "view",
      "type": "function",
      "constant": true
    },
    {
      "inputs": [],
      "name": "_symbol",
      "outputs": [
        {
          "internalType": "string",
          "name": "",
          "type": "string"
        }
      ],
      "stateMutability": "view",
      "type": "function",
      "constant": true
    },
    {
      "inputs": [],
      "name": "_totalSupply",
      "outputs": [
        {
          "internalType": "uint256",
          "name": "",
          "type": "uint256"
        }
      ],
      "stateMutability": "view",
      "type": "function",
      "constant": true
    },
    {
      "inputs": [
        {
          "internalType": "address",
          "name": "owner",
          "type": "address"
        },
        {
          "internalType": "address",
          "name": "spender",
          "type": "address"
        }
      ],
      "name": "allowance",
      "outputs": [
        {
          "internalType": "uint256",
          "name": "",
          "type": "uint256"
        }
      ],
      "stateMutability": "view",
      "type": "function",
      "constant": true
    },
    {
      "inputs": [
        {
          "internalType": "address",
          "name": "spender",
          "type": "address"
        },
        {
          "internalType": "uint256",
          "name": "amount",
          "type": "uint256"
        }
      ],
      "name": "approve",
      "outputs": [
        {
          "internalType": "bool",
          "name": "",
          "type": "bool"
        }
      ],
      "stateMutability": "nonpayable",
      "type": "function"
    },
    {
      "inputs": [
        {
          "internalType": "address",
          "name": "account",
          "type": "address"
        }
      ],
      "name": "balanceOf",
      "outputs": [
        {
          "internalType": "uint256",
          "name": "",
          "type": "uint256"
        }
      ],
      "stateMutability": "view",
      "type": "function",
      "constant": true
    },
    {
      "inputs": [],
      "name": "coinPrice",
      "outputs": [
        {
          "internalType": "uint256",
          "name": "",
          "type": "uint256"
        }
      ],
      "stateMutability": "view",
      "type": "function",
      "constant": true
    },
    {
      "inputs": [],
      "name": "decimals",
      "outputs": [
        {
          "internalType": "uint8",
          "name": "",
          "type": "uint8"
        }
      ],
      "stateMutability": "view",
      "type": "function",
      "constant": true
    },
    {
      "inputs": [
        {
          "internalType": "address",
          "name": "spender",
          "type": "address"
        },
        {
          "internalType": "uint256",
          "name": "subtractedValue",
          "type": "uint256"
        }
      ],
      "name": "decreaseAllowance",
      "outputs": [
        {
          "internalType": "bool",
          "name": "",
          "type": "bool"
        }
      ],
      "stateMutability": "nonpayable",
      "type": "function"
    },
    {
      "inputs": [
        {
          "internalType": "address",
          "name": "spender",
          "type": "address"
        },
        {
          "internalType": "uint256",
          "name": "addedValue",
          "type": "uint256"
        }
      ],
      "name": "increaseAllowance",
      "outputs": [
        {
          "internalType": "bool",
          "name": "",
          "type": "bool"
        }
      ],
      "stateMutability": "nonpayable",
      "type": "function"
    },
    {
      "inputs": [],
      "name": "name",
      "outputs": [
        {
          "internalType": "string",
          "name": "",
          "type": "string"
        }
      ],
      "stateMutability": "view",
      "type": "function",
      "constant": true
    },
    {
      "inputs": [],
      "name": "owner",
      "outputs": [
        {
          "internalType": "address payable",
          "name": "",
          "type": "address"
        }
      ],
      "stateMutability": "view",
      "type": "function",
      "constant": true
    },
    {
      "inputs": [],
      "name": "sellPrice",
      "outputs": [
        {
          "internalType": "uint256",
          "name": "",
          "type": "uint256"
        }
      ],
      "stateMutability": "view",
      "type": "function",
      "constant": true
    },
    {
      "inputs": [],
      "name": "symbol",
      "outputs": [
        {
          "internalType": "string",
          "name": "",
          "type": "string"
        }
      ],
      "stateMutability": "view",
      "type": "function",
      "constant": true
    },
    {
      "inputs": [],
      "name": "totalSupply",
      "outputs": [
        {
          "internalType": "uint256",
          "name": "",
          "type": "uint256"
        }
      ],
      "stateMutability": "view",
      "type": "function",
      "constant": true
    },
    {
      "inputs": [
        {
          "internalType": "address",
          "name": "recipient",
          "type": "address"
        },
        {
          "internalType": "uint256",
          "name": "amount",
          "type": "uint256"
        }
      ],
      "name": "transfer",
      "outputs": [
        {
          "internalType": "bool",
          "name": "",
          "type": "bool"
        }
      ],
      "stateMutability": "nonpayable",
      "type": "function"
    },
    {
      "inputs": [
        {
          "internalType": "address",
          "name": "sender",
          "type": "address"
        },
        {
          "internalType": "address",
          "name": "recipient",
          "type": "address"
        },
        {
          "internalType": "uint256",
          "name": "amount",
          "type": "uint256"
        }
      ],
      "name": "transferFrom",
      "outputs": [
        {
          "internalType": "bool",
          "name": "",
          "type": "bool"
        }
      ],
      "stateMutability": "nonpayable",
      "type": "function"
    },
    {
      "inputs": [
        {
          "internalType": "uint256",
          "name": "amount",
          "type": "uint256"
        },
        {
          "internalType": "uint256",
          "name": "_coinPrice",
          "type": "uint256"
        },
        {
          "internalType": "uint256",
          "name": "_sellPrice",
          "type": "uint256"
        }
      ],
      "name": "refill",
      "outputs": [],
      "stateMutability": "nonpayable",
      "type": "function"
    },
    {
      "inputs": [
        {
          "internalType": "uint256",
          "name": "_amount",
          "type": "uint256"
        }
      ],
      "name": "refillEthers",
      "outputs": [],
      "stateMutability": "payable",
      "type": "function",
      "payable": true
    },
    {
      "inputs": [
        {
          "internalType": "uint256",
          "name": "_amount",
          "type": "uint256"
        }
      ],
      "name": "refillHealthPotion",
      "outputs": [],
      "stateMutability": "nonpayable",
      "type": "function"
    },
    {
      "inputs": [
        {
          "internalType": "uint256",
          "name": "_amount",
          "type": "uint256"
        }
      ],
      "name": "refillManaPotion",
      "outputs": [],
      "stateMutability": "nonpayable",
      "type": "function"
    },
    {
      "inputs": [
        {
          "internalType": "uint256",
          "name": "amount",
          "type": "uint256"
        }
      ],
      "name": "buyCoin",
      "outputs": [],
      "stateMutability": "payable",
      "type": "function",
      "payable": true
    },
    {
      "inputs": [
        {
          "internalType": "uint256",
          "name": "amount",
          "type": "uint256"
        }
      ],
      "name": "buyMana",
      "outputs": [],
      "stateMutability": "payable",
      "type": "function",
      "payable": true
    },
    {
      "inputs": [
        {
          "internalType": "uint256",
          "name": "amount",
          "type": "uint256"
        }
      ],
      "name": "buyHealth",
      "outputs": [],
      "stateMutability": "payable",
      "type": "function",
      "payable": true
    },
    {
      "inputs": [
        {
          "internalType": "uint256",
          "name": "_amount",
          "type": "uint256"
        },
        {
          "internalType": "address payable",
          "name": "_recipient",
          "type": "address"
        }
      ],
      "name": "sellCoin",
      "outputs": [],
      "stateMutability": "payable",
      "type": "function",
      "payable": true
    },
    {
      "inputs": [
        {
          "internalType": "uint256",
          "name": "_amount",
          "type": "uint256"
        }
      ],
      "name": "withdraw",
      "outputs": [],
      "stateMutability": "nonpayable",
      "type": "function"
    },
    {
      "inputs": [],
      "name": "viewMachineEthers",
      "outputs": [
        {
          "internalType": "uint256",
          "name": "",
          "type": "uint256"
        }
      ],
      "stateMutability": "view",
      "type": "function",
      "constant": true
    },
    {
      "inputs": [
        {
          "internalType": "uint256",
          "name": "_price",
          "type": "uint256"
        }
      ],
      "name": "changeBuyPrice",
      "outputs": [],
      "stateMutability": "nonpayable",
      "type": "function"
    },
    {
      "inputs": [
        {
          "internalType": "uint256",
          "name": "_price",
          "type": "uint256"
        }
      ],
      "name": "changeSellPrice",
      "outputs": [],
      "stateMutability": "nonpayable",
      "type": "function"
    },
    {
      "inputs": [
        {
          "internalType": "uint256",
          "name": "_price",
          "type": "uint256"
        }
      ],
      "name": "changeHealthPrice",
      "outputs": [],
      "stateMutability": "nonpayable",
      "type": "function"
    },
    {
      "inputs": [
        {
          "internalType": "uint256",
          "name": "_price",
          "type": "uint256"
        }
      ],
      "name": "changeManaPrice",
      "outputs": [],
      "stateMutability": "nonpayable",
      "type": "function"
    }
  ],
  "bytecode": "0x6080604052600160085560016009553480156200001b57600080fd5b506040518060400160405280600881526020017f506f6b65436f696e0000000000000000000000000000000000000000000000008152506040518060400160405280600381526020017f504b430000000000000000000000000000000000000000000000000000000000815250816003908162000099919062000595565b508060049081620000ab919062000595565b50505060006103e89050620000c733826200019960201b60201c565b33600560006101000a81548173ffffffffffffffffffffffffffffffffffffffff021916908373ffffffffffffffffffffffffffffffffffffffff1602179055506064600c60003073ffffffffffffffffffffffffffffffffffffffff1673ffffffffffffffffffffffffffffffffffffffff168152602001908152602001600020819055506064600b60003073ffffffffffffffffffffffffffffffffffffffff1673ffffffffffffffffffffffffffffffffffffffff1681526020019081526020016000208190555050620007bd565b600073ffffffffffffffffffffffffffffffffffffffff168273ffffffffffffffffffffffffffffffffffffffff16036200020b576040517f08c379a0000000000000000000000000000000000000000000000000000000008152600401620002029062000703565b60405180910390fd5b6200021f600083836200031160201b60201c565b806002600082825462000233919062000754565b92505081905550806000808473ffffffffffffffffffffffffffffffffffffffff1673ffffffffffffffffffffffffffffffffffffffff16815260200190815260200160002060008282546200028a919062000754565b925050819055508173ffffffffffffffffffffffffffffffffffffffff16600073ffffffffffffffffffffffffffffffffffffffff167fddf252ad1be2c89b69c2b068fc378daa952ba7f163c4a11628f55a4df523b3ef83604051620002f19190620007a0565b60405180910390a36200030d600083836200031660201b60201c565b5050565b505050565b505050565b600081519050919050565b7f4e487b7100000000000000000000000000000000000000000000000000000000600052604160045260246000fd5b7f4e487b7100000000000000000000000000000000000000000000000000000000600052602260045260246000fd5b600060028204905060018216806200039d57607f821691505b602082108103620003b357620003b262000355565b5b50919050565b60008190508160005260206000209050919050565b60006020601f8301049050919050565b600082821b905092915050565b6000600883026200041d7fffffffffffffffffffffffffffffffffffffffffffffffffffffffffffffffff82620003de565b620004298683620003de565b95508019841693508086168417925050509392505050565b6000819050919050565b6000819050919050565b600062000476620004706200046a8462000441565b6200044b565b62000441565b9050919050565b6000819050919050565b620004928362000455565b620004aa620004a1826200047d565b848454620003eb565b825550505050565b600090565b620004c1620004b2565b620004ce81848462000487565b505050565b5b81811015620004f657620004ea600082620004b7565b600181019050620004d4565b5050565b601f82111562000545576200050f81620003b9565b6200051a84620003ce565b810160208510156200052a578190505b620005426200053985620003ce565b830182620004d3565b50505b505050565b600082821c905092915050565b60006200056a600019846008026200054a565b1980831691505092915050565b600062000585838362000557565b9150826002028217905092915050565b620005a0826200031b565b67ffffffffffffffff811115620005bc57620005bb62000326565b5b620005c8825462000384565b620005d5828285620004fa565b600060209050601f8311600181146200060d5760008415620005f8578287015190505b62000604858262000577565b86555062000674565b601f1984166200061d86620003b9565b60005b82811015620006475784890151825560018201915060208501945060208101905062000620565b8683101562000667578489015162000663601f89168262000557565b8355505b6001600288020188555050505b505050505050565b600082825260208201905092915050565b7f4e616f206520706f73736976656c20637269617220746f6b656e73206e6f206560008201527f6e64657265636f20300000000000000000000000000000000000000000000000602082015250565b6000620006eb6029836200067c565b9150620006f8826200068d565b604082019050919050565b600060208201905081810360008301526200071e81620006dc565b9050919050565b7f4e487b7100000000000000000000000000000000000000000000000000000000600052601160045260246000fd5b6000620007618262000441565b91506200076e8362000441565b925082820190508082111562000789576200078862000725565b5b92915050565b6200079a8162000441565b82525050565b6000602082019050620007b760008301846200078f565b92915050565b61379a80620007cd6000396000f3fe6080604052600436106102255760003560e01c80638779257411610123578063a8baf6b4116100ab578063d28d88521161006f578063d28d885214610833578063dd62ed3e1461085e578063e886d0251461089b578063f3934c8c146108c4578063f612c1e6146108ed57610225565b8063a8baf6b41461075b578063a9059cbb14610784578063ad0f2916146107c1578063afe86f21146107ec578063b09f12661461080857610225565b80639db29d8c116100f25780639db29d8c14610676578063a263c7ba1461069f578063a457c2d7146106c8578063a66d4ba714610705578063a7dd5b5b1461073057610225565b806387792574146105db5780638da5cb5b146105f757806395d89b411461062257806398a5b0c41461064d57610225565b80633cf6104b116101b157806358fedf011161017557806358fedf01146104cb578063662720b3146105085780636ebcf607146105455780636f48f4791461058257806370a082311461059e57610225565b80633cf6104b146103f35780633de223f31461041c5780633eaaf86b14610438578063465c96a8146104635780634b750334146104a057610225565b80631b6e1d51116101f85780631b6e1d51146102fa57806323b872dd146103255780632e1a7d4d14610362578063313ce5671461038b57806339509351146103b657610225565b8063024c2ddd1461022a57806306fdde0314610267578063095ea7b31461029257806318160ddd146102cf575b600080fd5b34801561023657600080fd5b50610251600480360381019061024c9190612730565b610909565b60405161025e9190612789565b60405180910390f35b34801561027357600080fd5b5061027c61092e565b6040516102899190612834565b60405180910390f35b34801561029e57600080fd5b506102b960048036038101906102b49190612882565b6109c0565b6040516102c691906128dd565b60405180910390f35b3480156102db57600080fd5b506102e46109de565b6040516102f19190612789565b60405180910390f35b34801561030657600080fd5b5061030f6109e8565b60405161031c9190612789565b60405180910390f35b34801561033157600080fd5b5061034c600480360381019061034791906128f8565b6109f0565b60405161035991906128dd565b60405180910390f35b34801561036e57600080fd5b506103896004803603810190610384919061294b565b610ae8565b005b34801561039757600080fd5b506103a0610c3a565b6040516103ad9190612994565b60405180910390f35b3480156103c257600080fd5b506103dd60048036038101906103d89190612882565b610c43565b6040516103ea91906128dd565b60405180910390f35b3480156103ff57600080fd5b5061041a6004803603810190610415919061294b565b610cef565b005b6104366004803603810190610431919061294b565b610e1b565b005b34801561044457600080fd5b5061044d611087565b60405161045a9190612789565b60405180910390f35b34801561046f57600080fd5b5061048a600480360381019061048591906129af565b61108d565b6040516104979190612789565b60405180910390f35b3480156104ac57600080fd5b506104b56110a5565b6040516104c29190612789565b60405180910390f35b3480156104d757600080fd5b506104f260048036038101906104ed91906129af565b6110ab565b6040516104ff9190612789565b60405180910390f35b34801561051457600080fd5b5061052f600480360381019061052a91906129af565b6110c3565b60405161053c9190612789565b60405180910390f35b34801561055157600080fd5b5061056c600480360381019061056791906129af565b6110db565b6040516105799190612789565b60405180910390f35b61059c6004803603810190610597919061294b565b6110f3565b005b3480156105aa57600080fd5b506105c560048036038101906105c091906129af565b61135f565b6040516105d29190612789565b60405180910390f35b6105f560048036038101906105f0919061294b565b6113a7565b005b34801561060357600080fd5b5061060c611533565b60405161061991906129fd565b60405180910390f35b34801561062e57600080fd5b50610637611559565b6040516106449190612834565b60405180910390f35b34801561065957600080fd5b50610674600480360381019061066f919061294b565b6115eb565b005b34801561068257600080fd5b5061069d60048036038101906106989190612a18565b6116dd565b005b3480156106ab57600080fd5b506106c660048036038101906106c1919061294b565b611909565b005b3480156106d457600080fd5b506106ef60048036038101906106ea9190612882565b6119fb565b6040516106fc91906128dd565b60405180910390f35b34801561071157600080fd5b5061071a611ae6565b6040516107279190612789565b60405180910390f35b34801561073c57600080fd5b50610745611aec565b6040516107529190612789565b60405180910390f35b34801561076757600080fd5b50610782600480360381019061077d919061294b565b611af2565b005b34801561079057600080fd5b506107ab60048036038101906107a69190612882565b611c1e565b6040516107b891906128dd565b60405180910390f35b3480156107cd57600080fd5b506107d6611c3c565b6040516107e39190612789565b60405180910390f35b61080660048036038101906108019190612a97565b611c42565b005b34801561081457600080fd5b5061081d611e16565b60405161082a9190612834565b60405180910390f35b34801561083f57600080fd5b50610848611ea4565b6040516108559190612834565b60405180910390f35b34801561086a57600080fd5b5061088560048036038101906108809190612730565b611f32565b6040516108929190612789565b60405180910390f35b3480156108a757600080fd5b506108c260048036038101906108bd919061294b565b611fb9565b005b3480156108d057600080fd5b506108eb60048036038101906108e6919061294b565b6120ab565b005b6109076004803603810190610902919061294b565b61219d565b005b6001602052816000526040600020602052806000526040600020600091509150505481565b60606003805461093d90612b06565b80601f016020809104026020016040519081016040528092919081815260200182805461096990612b06565b80156109b65780601f1061098b576101008083540402835291602001916109b6565b820191906000526020600020905b81548152906001019060200180831161099957829003601f168201915b5050505050905090565b60006109d46109cd612273565b848461227b565b6001905092915050565b6000600254905090565b600047905090565b60006109fd848484612444565b6000600160008673ffffffffffffffffffffffffffffffffffffffff1673ffffffffffffffffffffffffffffffffffffffff1681526020019081526020016000206000610a48612273565b73ffffffffffffffffffffffffffffffffffffffff1673ffffffffffffffffffffffffffffffffffffffff16815260200190815260200160002054905082811015610ac8576040517f08c379a0000000000000000000000000000000000000000000000000000000008152600401610abf90612ba9565b60405180910390fd5b610adc85610ad4612273565b85840361227b565b60019150509392505050565b600560009054906101000a900473ffffffffffffffffffffffffffffffffffffffff1673ffffffffffffffffffffffffffffffffffffffff163373ffffffffffffffffffffffffffffffffffffffff1614610b78576040517f08c379a0000000000000000000000000000000000000000000000000000000008152600401610b6f90612c3b565b60405180910390fd5b80471015610bbb576040517f08c379a0000000000000000000000000000000000000000000000000000000008152600401610bb290612ccd565b60405180910390fd5b600560009054906101000a900473ffffffffffffffffffffffffffffffffffffffff1673ffffffffffffffffffffffffffffffffffffffff166108fc670de0b6b3a764000083610c0b9190612d1c565b9081150290604051600060405180830381858888f19350505050158015610c36573d6000803e3d6000fd5b5050565b60006012905090565b6000610ce5610c50612273565b848460016000610c5e612273565b73ffffffffffffffffffffffffffffffffffffffff1673ffffffffffffffffffffffffffffffffffffffff16815260200190815260200160002060008873ffffffffffffffffffffffffffffffffffffffff1673ffffffffffffffffffffffffffffffffffffffff16815260200190815260200160002054610ce09190612d76565b61227b565b6001905092915050565b600560009054906101000a900473ffffffffffffffffffffffffffffffffffffffff1673ffffffffffffffffffffffffffffffffffffffff163373ffffffffffffffffffffffffffffffffffffffff1614610d7f576040517f08c379a0000000000000000000000000000000000000000000000000000000008152600401610d7690612c3b565b60405180910390fd5b60008111610dc2576040517f08c379a0000000000000000000000000000000000000000000000000000000008152600401610db990612e1c565b60405180910390fd5b80600c60003073ffffffffffffffffffffffffffffffffffffffff1673ffffffffffffffffffffffffffffffffffffffff1681526020019081526020016000206000828254610e119190612d76565b9250508190555050565b80600b60003073ffffffffffffffffffffffffffffffffffffffff1673ffffffffffffffffffffffffffffffffffffffff168152602001908152602001600020541015610e9d576040517f08c379a0000000000000000000000000000000000000000000000000000000008152600401610e9490612eae565b60405180910390fd5b60095481610eab9190612d1c565b600a60003073ffffffffffffffffffffffffffffffffffffffff1673ffffffffffffffffffffffffffffffffffffffff168152602001908152602001600020541015610f2c576040517f08c379a0000000000000000000000000000000000000000000000000000000008152600401610f2390612f40565b60405180910390fd5b80600a60003073ffffffffffffffffffffffffffffffffffffffff1673ffffffffffffffffffffffffffffffffffffffff1681526020019081526020016000206000828254610f7b9190612d76565b9250508190555080600a60003373ffffffffffffffffffffffffffffffffffffffff1673ffffffffffffffffffffffffffffffffffffffff1681526020019081526020016000206000828254610fd19190612f60565b9250508190555080600b60003073ffffffffffffffffffffffffffffffffffffffff1673ffffffffffffffffffffffffffffffffffffffff16815260200190815260200160002060008282546110279190612f60565b9250508190555080600b60003373ffffffffffffffffffffffffffffffffffffffff1673ffffffffffffffffffffffffffffffffffffffff168152602001908152602001600020600082825461107d9190612f60565b9250508190555050565b60025481565b600a6020528060005260406000206000915090505481565b60075481565b600b6020528060005260406000206000915090505481565b600c6020528060005260406000206000915090505481565b60006020528060005260406000206000915090505481565b80600c60003073ffffffffffffffffffffffffffffffffffffffff1673ffffffffffffffffffffffffffffffffffffffff168152602001908152602001600020541015611175576040517f08c379a000000000000000000000000000000000000000000000000000000000815260040161116c90612eae565b60405180910390fd5b600854816111839190612d1c565b600a60003073ffffffffffffffffffffffffffffffffffffffff1673ffffffffffffffffffffffffffffffffffffffff168152602001908152602001600020541015611204576040517f08c379a00000000000000000000000000000000000000000000000000000000081526004016111fb90612f40565b60405180910390fd5b80600a60003073ffffffffffffffffffffffffffffffffffffffff1673ffffffffffffffffffffffffffffffffffffffff16815260200190815260200160002060008282546112539190612d76565b9250508190555080600a60003373ffffffffffffffffffffffffffffffffffffffff1673ffffffffffffffffffffffffffffffffffffffff16815260200190815260200160002060008282546112a99190612f60565b9250508190555080600c60003073ffffffffffffffffffffffffffffffffffffffff1673ffffffffffffffffffffffffffffffffffffffff16815260200190815260200160002060008282546112ff9190612f60565b9250508190555080600c60003373ffffffffffffffffffffffffffffffffffffffff1673ffffffffffffffffffffffffffffffffffffffff16815260200190815260200160002060008282546113559190612f60565b9250508190555050565b60008060008373ffffffffffffffffffffffffffffffffffffffff1673ffffffffffffffffffffffffffffffffffffffff168152602001908152602001600020549050919050565b600654816113b59190612d1c565b3410156113f7576040517f08c379a00000000000000000000000000000000000000000000000000000000081526004016113ee90612fe0565b60405180910390fd5b80600a60003073ffffffffffffffffffffffffffffffffffffffff1673ffffffffffffffffffffffffffffffffffffffff168152602001908152602001600020541015611479576040517f08c379a000000000000000000000000000000000000000000000000000000000815260040161147090613072565b60405180910390fd5b611484303383612444565b80600a60003073ffffffffffffffffffffffffffffffffffffffff1673ffffffffffffffffffffffffffffffffffffffff16815260200190815260200160002060008282546114d39190612f60565b9250508190555080600a60003373ffffffffffffffffffffffffffffffffffffffff1673ffffffffffffffffffffffffffffffffffffffff16815260200190815260200160002060008282546115299190612d76565b9250508190555050565b600560009054906101000a900473ffffffffffffffffffffffffffffffffffffffff1681565b60606004805461156890612b06565b80601f016020809104026020016040519081016040528092919081815260200182805461159490612b06565b80156115e15780601f106115b6576101008083540402835291602001916115e1565b820191906000526020600020905b8154815290600101906020018083116115c457829003601f168201915b5050505050905090565b600560009054906101000a900473ffffffffffffffffffffffffffffffffffffffff1673ffffffffffffffffffffffffffffffffffffffff163373ffffffffffffffffffffffffffffffffffffffff161461167b576040517f08c379a000000000000000000000000000000000000000000000000000000000815260040161167290612c3b565b60405180910390fd5b80600081116116bf576040517f08c379a00000000000000000000000000000000000000000000000000000000081526004016116b6906130de565b60405180910390fd5b670de0b6b3a7640000826116d39190612d1c565b6009819055505050565b600560009054906101000a900473ffffffffffffffffffffffffffffffffffffffff1673ffffffffffffffffffffffffffffffffffffffff163373ffffffffffffffffffffffffffffffffffffffff161461176d576040517f08c379a000000000000000000000000000000000000000000000000000000000815260040161176490612c3b565b60405180910390fd5b826117773361135f565b10156117b8576040517f08c379a00000000000000000000000000000000000000000000000000000000081526004016117af90613170565b60405180910390fd5b600083116117fb576040517f08c379a00000000000000000000000000000000000000000000000000000000081526004016117f290613202565b60405180910390fd5b6000821161183e576040517f08c379a000000000000000000000000000000000000000000000000000000000815260040161183590613294565b60405180910390fd5b60008111611881576040517f08c379a000000000000000000000000000000000000000000000000000000000815260040161187890613326565b60405180910390fd5b61188c333085612444565b82600a60003073ffffffffffffffffffffffffffffffffffffffff1673ffffffffffffffffffffffffffffffffffffffff16815260200190815260200160002081905550670de0b6b3a7640000826118e49190612d1c565b600681905550670de0b6b3a7640000816118fe9190612d1c565b600781905550505050565b600560009054906101000a900473ffffffffffffffffffffffffffffffffffffffff1673ffffffffffffffffffffffffffffffffffffffff163373ffffffffffffffffffffffffffffffffffffffff1614611999576040517f08c379a000000000000000000000000000000000000000000000000000000000815260040161199090612c3b565b60405180910390fd5b80600081116119dd576040517f08c379a00000000000000000000000000000000000000000000000000000000081526004016119d4906130de565b60405180910390fd5b670de0b6b3a7640000826119f19190612d1c565b6006819055505050565b60008060016000611a0a612273565b73ffffffffffffffffffffffffffffffffffffffff1673ffffffffffffffffffffffffffffffffffffffff16815260200190815260200160002060008573ffffffffffffffffffffffffffffffffffffffff1673ffffffffffffffffffffffffffffffffffffffff16815260200190815260200160002054905082811015611ac7576040517f08c379a0000000000000000000000000000000000000000000000000000000008152600401611abe90613392565b60405180910390fd5b611adb611ad2612273565b8585840361227b565b600191505092915050565b60095481565b60085481565b600560009054906101000a900473ffffffffffffffffffffffffffffffffffffffff1673ffffffffffffffffffffffffffffffffffffffff163373ffffffffffffffffffffffffffffffffffffffff1614611b82576040517f08c379a0000000000000000000000000000000000000000000000000000000008152600401611b7990612c3b565b60405180910390fd5b60008111611bc5576040517f08c379a0000000000000000000000000000000000000000000000000000000008152600401611bbc90612e1c565b60405180910390fd5b80600b60003073ffffffffffffffffffffffffffffffffffffffff1673ffffffffffffffffffffffffffffffffffffffff1681526020019081526020016000206000828254611c149190612d76565b9250508190555050565b6000611c32611c2b612273565b8484612444565b6001905092915050565b60065481565b81600a60003373ffffffffffffffffffffffffffffffffffffffff1673ffffffffffffffffffffffffffffffffffffffff168152602001908152602001600020541015611cc4576040517f08c379a0000000000000000000000000000000000000000000000000000000008152600401611cbb906133fe565b60405180910390fd5b81471015611d07576040517f08c379a0000000000000000000000000000000000000000000000000000000008152600401611cfe90612ccd565b60405180910390fd5b611d12333084612444565b81600a60003373ffffffffffffffffffffffffffffffffffffffff1673ffffffffffffffffffffffffffffffffffffffff1681526020019081526020016000206000828254611d619190612f60565b9250508190555081600a60003073ffffffffffffffffffffffffffffffffffffffff1673ffffffffffffffffffffffffffffffffffffffff1681526020019081526020016000206000828254611db79190612d76565b925050819055508073ffffffffffffffffffffffffffffffffffffffff166108fc60075484611de69190612d1c565b9081150290604051600060405180830381858888f19350505050158015611e11573d6000803e3d6000fd5b505050565b60048054611e2390612b06565b80601f0160208091040260200160405190810160405280929190818152602001828054611e4f90612b06565b8015611e9c5780601f10611e7157610100808354040283529160200191611e9c565b820191906000526020600020905b815481529060010190602001808311611e7f57829003601f168201915b505050505081565b60038054611eb190612b06565b80601f0160208091040260200160405190810160405280929190818152602001828054611edd90612b06565b8015611f2a5780601f10611eff57610100808354040283529160200191611f2a565b820191906000526020600020905b815481529060010190602001808311611f0d57829003601f168201915b505050505081565b6000600160008473ffffffffffffffffffffffffffffffffffffffff1673ffffffffffffffffffffffffffffffffffffffff16815260200190815260200160002060008373ffffffffffffffffffffffffffffffffffffffff1673ffffffffffffffffffffffffffffffffffffffff16815260200190815260200160002054905092915050565b600560009054906101000a900473ffffffffffffffffffffffffffffffffffffffff1673ffffffffffffffffffffffffffffffffffffffff163373ffffffffffffffffffffffffffffffffffffffff1614612049576040517f08c379a000000000000000000000000000000000000000000000000000000000815260040161204090612c3b565b60405180910390fd5b806000811161208d576040517f08c379a0000000000000000000000000000000000000000000000000000000008152600401612084906130de565b60405180910390fd5b670de0b6b3a7640000826120a19190612d1c565b6008819055505050565b600560009054906101000a900473ffffffffffffffffffffffffffffffffffffffff1673ffffffffffffffffffffffffffffffffffffffff163373ffffffffffffffffffffffffffffffffffffffff161461213b576040517f08c379a000000000000000000000000000000000000000000000000000000000815260040161213290612c3b565b60405180910390fd5b806000811161217f576040517f08c379a0000000000000000000000000000000000000000000000000000000008152600401612176906130de565b60405180910390fd5b670de0b6b3a7640000826121939190612d1c565b6007819055505050565b600560009054906101000a900473ffffffffffffffffffffffffffffffffffffffff1673ffffffffffffffffffffffffffffffffffffffff163373ffffffffffffffffffffffffffffffffffffffff161461222d576040517f08c379a000000000000000000000000000000000000000000000000000000000815260040161222490612c3b565b60405180910390fd5b60008111612270576040517f08c379a000000000000000000000000000000000000000000000000000000000815260040161226790613490565b60405180910390fd5b50565b600033905090565b600073ffffffffffffffffffffffffffffffffffffffff168373ffffffffffffffffffffffffffffffffffffffff16036122ea576040517f08c379a00000000000000000000000000000000000000000000000000000000081526004016122e190613522565b60405180910390fd5b600073ffffffffffffffffffffffffffffffffffffffff168273ffffffffffffffffffffffffffffffffffffffff1603612359576040517f08c379a0000000000000000000000000000000000000000000000000000000008152600401612350906135b4565b60405180910390fd5b80600160008573ffffffffffffffffffffffffffffffffffffffff1673ffffffffffffffffffffffffffffffffffffffff16815260200190815260200160002060008473ffffffffffffffffffffffffffffffffffffffff1673ffffffffffffffffffffffffffffffffffffffff168152602001908152602001600020819055508173ffffffffffffffffffffffffffffffffffffffff168373ffffffffffffffffffffffffffffffffffffffff167f8c5be1e5ebec7d5bd14f71427d1e84f3dd0314c0f7b2291e5b200ac8c7c3b925836040516124379190612789565b60405180910390a3505050565b600073ffffffffffffffffffffffffffffffffffffffff168373ffffffffffffffffffffffffffffffffffffffff16036124b3576040517f08c379a00000000000000000000000000000000000000000000000000000000081526004016124aa90613646565b60405180910390fd5b600073ffffffffffffffffffffffffffffffffffffffff168273ffffffffffffffffffffffffffffffffffffffff1603612522576040517f08c379a0000000000000000000000000000000000000000000000000000000008152600401612519906136d8565b60405180910390fd5b61252d8383836126c3565b60008060008573ffffffffffffffffffffffffffffffffffffffff1673ffffffffffffffffffffffffffffffffffffffff168152602001908152602001600020549050818110156125b3576040517f08c379a00000000000000000000000000000000000000000000000000000000081526004016125aa90613744565b60405180910390fd5b8181036000808673ffffffffffffffffffffffffffffffffffffffff1673ffffffffffffffffffffffffffffffffffffffff16815260200190815260200160002081905550816000808573ffffffffffffffffffffffffffffffffffffffff1673ffffffffffffffffffffffffffffffffffffffff16815260200190815260200160002060008282546126469190612d76565b925050819055508273ffffffffffffffffffffffffffffffffffffffff168473ffffffffffffffffffffffffffffffffffffffff167fddf252ad1be2c89b69c2b068fc378daa952ba7f163c4a11628f55a4df523b3ef846040516126aa9190612789565b60405180910390a36126bd8484846126c8565b50505050565b505050565b505050565b600080fd5b600073ffffffffffffffffffffffffffffffffffffffff82169050919050565b60006126fd826126d2565b9050919050565b61270d816126f2565b811461271857600080fd5b50565b60008135905061272a81612704565b92915050565b60008060408385031215612747576127466126cd565b5b60006127558582860161271b565b92505060206127668582860161271b565b9150509250929050565b6000819050919050565b61278381612770565b82525050565b600060208201905061279e600083018461277a565b92915050565b600081519050919050565b600082825260208201905092915050565b60005b838110156127de5780820151818401526020810190506127c3565b60008484015250505050565b6000601f19601f8301169050919050565b6000612806826127a4565b61281081856127af565b93506128208185602086016127c0565b612829816127ea565b840191505092915050565b6000602082019050818103600083015261284e81846127fb565b905092915050565b61285f81612770565b811461286a57600080fd5b50565b60008135905061287c81612856565b92915050565b60008060408385031215612899576128986126cd565b5b60006128a78582860161271b565b92505060206128b88582860161286d565b9150509250929050565b60008115159050919050565b6128d7816128c2565b82525050565b60006020820190506128f260008301846128ce565b92915050565b600080600060608486031215612911576129106126cd565b5b600061291f8682870161271b565b93505060206129308682870161271b565b92505060406129418682870161286d565b9150509250925092565b600060208284031215612961576129606126cd565b5b600061296f8482850161286d565b91505092915050565b600060ff82169050919050565b61298e81612978565b82525050565b60006020820190506129a96000830184612985565b92915050565b6000602082840312156129c5576129c46126cd565b5b60006129d38482850161271b565b91505092915050565b60006129e7826126d2565b9050919050565b6129f7816129dc565b82525050565b6000602082019050612a1260008301846129ee565b92915050565b600080600060608486031215612a3157612a306126cd565b5b6000612a3f8682870161286d565b9350506020612a508682870161286d565b9250506040612a618682870161286d565b9150509250925092565b612a74816129dc565b8114612a7f57600080fd5b50565b600081359050612a9181612a6b565b92915050565b60008060408385031215612aae57612aad6126cd565b5b6000612abc8582860161286d565b9250506020612acd85828601612a82565b9150509250929050565b7f4e487b7100000000000000000000000000000000000000000000000000000000600052602260045260246000fd5b60006002820490506001821680612b1e57607f821691505b602082108103612b3157612b30612ad7565b5b50919050565b7f56616c6f7220696e737566696369656e74652070617261207265616c697a617260008201527f2061207472616e73666572656e63696100000000000000000000000000000000602082015250565b6000612b936030836127af565b9150612b9e82612b37565b604082019050919050565b60006020820190508181036000830152612bc281612b86565b9050919050565b7f4170656e6173206f2061646d696e20706f6465207265616c697a61722065737360008201527f61206f7065726163616f21000000000000000000000000000000000000000000602082015250565b6000612c25602b836127af565b9150612c3082612bc9565b604082019050919050565b60006020820190508181036000830152612c5481612c18565b9050919050565b7f41206d617175696e61206e616f2074656d206574686572206f2073756669636960008201527f656e746521000000000000000000000000000000000000000000000000000000602082015250565b6000612cb76025836127af565b9150612cc282612c5b565b604082019050919050565b60006020820190508181036000830152612ce681612caa565b9050919050565b7f4e487b7100000000000000000000000000000000000000000000000000000000600052601160045260246000fd5b6000612d2782612770565b9150612d3283612770565b9250817fffffffffffffffffffffffffffffffffffffffffffffffffffffffffffffffff0483118215151615612d6b57612d6a612ced565b5b828202905092915050565b6000612d8182612770565b9150612d8c83612770565b9250828201905080821115612da457612da3612ced565b5b92915050565b7f4e616f206520706f73736976656c2061646963696f6e6172203020706f636f6560008201527f7321000000000000000000000000000000000000000000000000000000000000602082015250565b6000612e066022836127af565b9150612e1182612daa565b604082019050919050565b60006020820190508181036000830152612e3581612df9565b9050919050565b7f4e6f73736f206573746f717565206e616f2074656d20706f636f65732073756660008201527f696369656e746573210000000000000000000000000000000000000000000000602082015250565b6000612e986029836127af565b9150612ea382612e3c565b604082019050919050565b60006020820190508181036000830152612ec781612e8b565b9050919050565b7f566f6365206e616f2074656d20746f6b656e7320737566696369656e7465732060008201527f70617261207265616c697a6172206573736120636f6d70726100000000000000602082015250565b6000612f2a6039836127af565b9150612f3582612ece565b604082019050919050565b60006020820190508181036000830152612f5981612f1d565b9050919050565b6000612f6b82612770565b9150612f7683612770565b9250828203905081811115612f8e57612f8d612ced565b5b92915050565b7f4f2076616c6f72206520696e737566696369656e746521000000000000000000600082015250565b6000612fca6017836127af565b9150612fd582612f94565b602082019050919050565b60006020820190508181036000830152612ff981612fbd565b9050919050565b7f41206d617175696e61206e616f2074656d20746f6b656e73206f20737566696360008201527f69656e7465000000000000000000000000000000000000000000000000000000602082015250565b600061305c6025836127af565b915061306782613000565b604082019050919050565b6000602082019050818103600083015261308b8161304f565b9050919050565b7f4f2076616c6f72206e616f20706f646520736572203021000000000000000000600082015250565b60006130c86017836127af565b91506130d382613092565b602082019050919050565b600060208201905081810360008301526130f7816130bb565b9050919050565b7f566f6365206e616f2074656d20746f6b656e7320737566696369656e7465732060008201527f70617261207265616c697a61722065737361206f7065726163616f2100000000602082015250565b600061315a603c836127af565b9150613165826130fe565b604082019050919050565b600060208201905081810360008301526131898161314d565b9050919050565b7f566f6365206e616f20706f6465207265636172726567617220206d617175696e60008201527f6120636f6d203020746f6b656e73210000000000000000000000000000000000602082015250565b60006131ec602f836127af565b91506131f782613190565b604082019050919050565b6000602082019050818103600083015261321b816131df565b9050919050565b7f4f2076616c6f7220646520636f6d70726120646f20746f6b656e206e616f207060008201527f6f64652073657220302100000000000000000000000000000000000000000000602082015250565b600061327e602a836127af565b915061328982613222565b604082019050919050565b600060208201905081810360008301526132ad81613271565b9050919050565b7f4f2076616c6f722064652076656e646120646f20746f6b656e206e616f20706f60008201527f6465207365722030210000000000000000000000000000000000000000000000602082015250565b60006133106029836127af565b915061331b826132b4565b604082019050919050565b6000602082019050818103600083015261333f81613303565b9050919050565b7f546f6b656e7320696e737566696369656e746573000000000000000000000000600082015250565b600061337c6014836127af565b915061338782613346565b602082019050919050565b600060208201905081810360008301526133ab8161336f565b9050919050565b7f566f6365206e616f2074656d20746f6b656e7320737566696369656e74657321600082015250565b60006133e86020836127af565b91506133f3826133b2565b602082019050919050565b60006020820190508181036000830152613417816133db565b9050919050565b7f566f6365206e616f20706f646520726563617272656761722061206d6171756960008201527f6e6120636f6d2030204574686572730000000000000000000000000000000000602082015250565b600061347a602f836127af565b91506134858261341e565b604082019050919050565b600060208201905081810360008301526134a98161346d565b9050919050565b7f4f2061646d696e206e616f20706f646520736572206f20656e64657265636f2060008201527f3000000000000000000000000000000000000000000000000000000000000000602082015250565b600061350c6021836127af565b9150613517826134b0565b604082019050919050565b6000602082019050818103600083015261353b816134ff565b9050919050565b7f4e616f20706f64656d6f7320656e766961722070617261206f20656e6465726560008201527f636f203000000000000000000000000000000000000000000000000000000000602082015250565b600061359e6024836127af565b91506135a982613542565b604082019050919050565b600060208201905081810360008301526135cd81613591565b9050919050565b7f566f6365206e616f20706f6465207265636562657220646f20656e646572656360008201527f6f20300000000000000000000000000000000000000000000000000000000000602082015250565b60006136306023836127af565b915061363b826135d4565b604082019050919050565b6000602082019050818103600083015261365f81613623565b9050919050565b7f566f6365206e616f20706f6465207472616e7366657269722070617261206f2060008201527f656e64657265636f203000000000000000000000000000000000000000000000602082015250565b60006136c2602a836127af565b91506136cd82613666565b604082019050919050565b600060208201905081810360008301526136f1816136b5565b9050919050565b7f566f6365206e616f2074656d20746f6b656e7320737566696369656e74657300600082015250565b600061372e601f836127af565b9150613739826136f8565b602082019050919050565b6000602082019050818103600083015261375d81613721565b905091905056fea26469706673582212202c0fb9be6545ec8a2ea4146d3d49ac274d457a81e11efdff8ffe989f9d07919c64736f6c63430008100033",
  "immutableReferences": {},
  "source": "// SPDX-License-Identifier: MIT\r\n\r\npragma solidity ^0.8.16;\r\n\r\nimport './ERC20.sol';\r\n\r\ncontract PokeStop is ERC20 {\r\n    address payable public owner;\r\n    uint256 public coinPrice;\r\n    uint256 public sellPrice;\r\n    uint256 public ManaPrice = 1;\r\n    uint256 public HealthPrice = 1;\r\n    mapping(address => uint) public MachineBalance;\r\n    mapping(address => uint) public HealthPotion;\r\n    mapping(address => uint) public ManaPotion;\r\n\r\n    constructor() ERC20(\"PokeCoin\", \"PKC\") {\r\n        uint256 _amount = 1000;\r\n        _mint(msg.sender, _amount);\r\n        owner = payable(msg.sender);\r\n        ManaPotion[address(this)] = 100;\r\n        HealthPotion[address(this)] = 100;\r\n    }\r\n\r\n    modifier isOwner() {\r\n    require(msg.sender == owner , \"Apenas o admin pode realizar essa operacao!\");\r\n    _;\r\n    }\r\n\r\n     modifier validPrice(uint256 _price) {\r\n    require(_price > 0 , \"O valor nao pode ser 0!\");\r\n    _;\r\n    }\r\n\r\n    function refill(uint amount, uint256 _coinPrice, uint256 _sellPrice) public isOwner {\r\n        require(balanceOf(msg.sender) >= amount, \"Voce nao tem tokens suficientes para realizar essa operacao!\");\r\n        require(amount>0, \"Voce nao pode recarregar  maquina com 0 tokens!\");\r\n        require(_coinPrice > 0, \"O valor de compra do token nao pode ser 0!\");\r\n        require(_sellPrice > 0, \"O valor de venda do token nao pode ser 0!\");\r\n        _transfer(msg.sender, address(this), amount);\r\n        MachineBalance[address(this)] = amount;\r\n        coinPrice = _coinPrice * 1 ether;\r\n        sellPrice = _sellPrice * 1 ether;\r\n    }\r\n\r\n    function refillEthers(uint _amount) payable public isOwner{\r\n        require(_amount>0, \"Voce nao pode recarregar a maquina com 0 Ethers\");\r\n    }\r\n\r\n    function refillHealthPotion(uint _amount) public isOwner{\r\n        require(_amount > 0, \"Nao e possivel adicionar 0 pocoes!\");\r\n        HealthPotion[address(this)] += _amount;\r\n    }\r\n\r\n    function refillManaPotion(uint _amount) public isOwner{\r\n        require(_amount > 0, \"Nao e possivel adicionar 0 pocoes!\");\r\n        ManaPotion[address(this)] += _amount;\r\n    }\r\n\r\n    function buyCoin (uint amount) payable public {\r\n        require(msg.value >= amount * coinPrice, \"O valor e insuficiente!\");\r\n        require(MachineBalance[address(this)]>=amount, \"A maquina nao tem tokens o suficiente\");\r\n        _transfer(address(this), msg.sender, amount);\r\n        MachineBalance[address(this)] -= amount;\r\n        MachineBalance[msg.sender] += amount;\r\n    }\r\n\r\n    function buyMana (uint amount) payable public {\r\n        require(ManaPotion[address(this)] >= amount, \"Nosso estoque nao tem pocoes suficientes!\");\r\n        require(MachineBalance[address(this)]>= (amount*ManaPrice), \"Voce nao tem tokens suficientes para realizar essa compra\");\r\n        MachineBalance[address(this)] += amount;\r\n        MachineBalance[msg.sender] -= amount;\r\n        ManaPotion[address(this)] -= amount;\r\n        ManaPotion[msg.sender] -= amount;\r\n    }\r\n\r\n    function buyHealth (uint amount) payable public {\r\n        require(HealthPotion[address(this)] >= amount, \"Nosso estoque nao tem pocoes suficientes!\");\r\n        require(MachineBalance[address(this)]>= (amount*HealthPrice), \"Voce nao tem tokens suficientes para realizar essa compra\");\r\n        MachineBalance[address(this)] += amount;\r\n        MachineBalance[msg.sender] -= amount;\r\n        HealthPotion[address(this)] -= amount;\r\n        HealthPotion[msg.sender] -= amount;\r\n    }\r\n\r\n    function sellCoin (uint _amount, address payable _recipient) payable public {\r\n        require(MachineBalance[msg.sender]>=_amount, \"Voce nao tem tokens suficientes!\");\r\n        require(address(this).balance >= _amount, \"A maquina nao tem ether o suficiente!\");\r\n        _transfer(msg.sender, address(this), _amount);\r\n        MachineBalance[msg.sender] -= _amount;\r\n        MachineBalance[address(this)] += _amount; \r\n        _recipient.transfer(_amount * sellPrice);\r\n    }\r\n\r\n    function withdraw(uint _amount) external isOwner{\r\n        require(address(this).balance >= _amount, \"A maquina nao tem ether o suficiente!\");\r\n        owner.transfer(_amount * 1 ether);\r\n    }\r\n\r\n    function viewMachineEthers() public view returns(uint256){\r\n        return address(this).balance;\r\n    }\r\n\r\n    function changeBuyPrice(uint256 _price) public isOwner validPrice(_price){\r\n        coinPrice = _price * 1 ether;\r\n    }\r\n\r\n    function changeSellPrice(uint256 _price) public isOwner validPrice(_price){\r\n        sellPrice = _price * 1 ether;\r\n    }\r\n\r\n    function changeHealthPrice(uint256 _price) public isOwner validPrice(_price){\r\n        HealthPrice = _price * 1 ether;\r\n    }\r\n\r\n     function changeManaPrice(uint256 _price) public isOwner validPrice(_price){\r\n        ManaPrice = _price * 1 ether;\r\n    }\r\n\r\n    function UseHealth(uint value) private{\r\n        HealthPotion[msg.sender] -= value;\r\n    }\r\n\r\n    function UseMana(uint value) private{\r\n        HealthPotion[msg.sender] -= value;\r\n    }\r\n}",
  "sourcePath": "C:\\Users\\Lucas Matheus\\Documents\\GitHub\\Gama_DesafioFinal\\Coin\\contracts\\PokeStop.sol",
  "compiler": {
    "name": "solc",
    "version": "0.8.16+commit.07a7930e.Emscripten.clang"
  },
  "schemaVersion": "3.4.9",
  "updatedAt": "2022-09-10T00:56:12.243Z",
  "networkType": "ethereum",
  "devdoc": {
    "kind": "dev",
    "methods": {},
    "version": 1
  },
  "userdoc": {
    "kind": "user",
    "methods": {},
    "version": 1
  }
}