{
  "contractName": "PokeStop",
  "abi": [
    {
      "inputs": [],
      "stateMutability": "nonpayable",
      "type": "constructor"
    },
    {
      "anonymous": false,
      "inputs": [
        {
          "indexed": true,
          "internalType": "address",
          "name": "owner",
          "type": "address"
        },
        {
          "indexed": true,
          "internalType": "address",
          "name": "spender",
          "type": "address"
        },
        {
          "indexed": false,
          "internalType": "uint256",
          "name": "amount",
          "type": "uint256"
        }
      ],
      "name": "Approval",
      "type": "event"
    },
    {
      "anonymous": false,
      "inputs": [
        {
          "indexed": true,
          "internalType": "address",
          "name": "from",
          "type": "address"
        },
        {
          "indexed": true,
          "internalType": "address",
          "name": "to",
          "type": "address"
        },
        {
          "indexed": false,
          "internalType": "uint256",
          "name": "amount",
          "type": "uint256"
        }
      ],
      "name": "Transfer",
      "type": "event"
    },
    {
      "inputs": [
        {
          "internalType": "address",
          "name": "",
          "type": "address"
        }
      ],
      "name": "HealthPotion",
      "outputs": [
        {
          "internalType": "uint256",
          "name": "",
          "type": "uint256"
        }
      ],
      "stateMutability": "view",
      "type": "function",
      "constant": true
    },
    {
      "inputs": [],
      "name": "HealthPrice",
      "outputs": [
        {
          "internalType": "uint256",
          "name": "",
          "type": "uint256"
        }
      ],
      "stateMutability": "view",
      "type": "function",
      "constant": true
    },
    {
      "inputs": [
        {
          "internalType": "address",
          "name": "",
          "type": "address"
        }
      ],
      "name": "MachineBalance",
      "outputs": [
        {
          "internalType": "uint256",
          "name": "",
          "type": "uint256"
        }
      ],
      "stateMutability": "view",
      "type": "function",
      "constant": true
    },
    {
      "inputs": [
        {
          "internalType": "address",
          "name": "",
          "type": "address"
        }
      ],
      "name": "ManaPotion",
      "outputs": [
        {
          "internalType": "uint256",
          "name": "",
          "type": "uint256"
        }
      ],
      "stateMutability": "view",
      "type": "function",
      "constant": true
    },
    {
      "inputs": [],
      "name": "ManaPrice",
      "outputs": [
        {
          "internalType": "uint256",
          "name": "",
          "type": "uint256"
        }
      ],
      "stateMutability": "view",
      "type": "function",
      "constant": true
    },
    {
      "inputs": [
        {
          "internalType": "address",
          "name": "",
          "type": "address"
        },
        {
          "internalType": "address",
          "name": "",
          "type": "address"
        }
      ],
      "name": "_allowances",
      "outputs": [
        {
          "internalType": "uint256",
          "name": "",
          "type": "uint256"
        }
      ],
      "stateMutability": "view",
      "type": "function",
      "constant": true
    },
    {
      "inputs": [
        {
          "internalType": "address",
          "name": "",
          "type": "address"
        }
      ],
      "name": "_balances",
      "outputs": [
        {
          "internalType": "uint256",
          "name": "",
          "type": "uint256"
        }
      ],
      "stateMutability": "view",
      "type": "function",
      "constant": true
    },
    {
      "inputs": [],
      "name": "_name",
      "outputs": [
        {
          "internalType": "string",
          "name": "",
          "type": "string"
        }
      ],
      "stateMutability": "view",
      "type": "function",
      "constant": true
    },
    {
      "inputs": [],
      "name": "_symbol",
      "outputs": [
        {
          "internalType": "string",
          "name": "",
          "type": "string"
        }
      ],
      "stateMutability": "view",
      "type": "function",
      "constant": true
    },
    {
      "inputs": [],
      "name": "_totalSupply",
      "outputs": [
        {
          "internalType": "uint256",
          "name": "",
          "type": "uint256"
        }
      ],
      "stateMutability": "view",
      "type": "function",
      "constant": true
    },
    {
      "inputs": [
        {
          "internalType": "address",
          "name": "owner",
          "type": "address"
        },
        {
          "internalType": "address",
          "name": "spender",
          "type": "address"
        }
      ],
      "name": "allowance",
      "outputs": [
        {
          "internalType": "uint256",
          "name": "",
          "type": "uint256"
        }
      ],
      "stateMutability": "view",
      "type": "function",
      "constant": true
    },
    {
      "inputs": [
        {
          "internalType": "address",
          "name": "spender",
          "type": "address"
        },
        {
          "internalType": "uint256",
          "name": "amount",
          "type": "uint256"
        }
      ],
      "name": "approve",
      "outputs": [
        {
          "internalType": "bool",
          "name": "",
          "type": "bool"
        }
      ],
      "stateMutability": "nonpayable",
      "type": "function"
    },
    {
      "inputs": [
        {
          "internalType": "address",
          "name": "account",
          "type": "address"
        }
      ],
      "name": "balanceOf",
      "outputs": [
        {
          "internalType": "uint256",
          "name": "",
          "type": "uint256"
        }
      ],
      "stateMutability": "view",
      "type": "function",
      "constant": true
    },
    {
      "inputs": [],
      "name": "coinPrice",
      "outputs": [
        {
          "internalType": "uint256",
          "name": "",
          "type": "uint256"
        }
      ],
      "stateMutability": "view",
      "type": "function",
      "constant": true
    },
    {
      "inputs": [],
      "name": "decimals",
      "outputs": [
        {
          "internalType": "uint8",
          "name": "",
          "type": "uint8"
        }
      ],
      "stateMutability": "view",
      "type": "function",
      "constant": true
    },
    {
      "inputs": [
        {
          "internalType": "address",
          "name": "spender",
          "type": "address"
        },
        {
          "internalType": "uint256",
          "name": "subtractedValue",
          "type": "uint256"
        }
      ],
      "name": "decreaseAllowance",
      "outputs": [
        {
          "internalType": "bool",
          "name": "",
          "type": "bool"
        }
      ],
      "stateMutability": "nonpayable",
      "type": "function"
    },
    {
      "inputs": [
        {
          "internalType": "address",
          "name": "spender",
          "type": "address"
        },
        {
          "internalType": "uint256",
          "name": "addedValue",
          "type": "uint256"
        }
      ],
      "name": "increaseAllowance",
      "outputs": [
        {
          "internalType": "bool",
          "name": "",
          "type": "bool"
        }
      ],
      "stateMutability": "nonpayable",
      "type": "function"
    },
    {
      "inputs": [],
      "name": "name",
      "outputs": [
        {
          "internalType": "string",
          "name": "",
          "type": "string"
        }
      ],
      "stateMutability": "view",
      "type": "function",
      "constant": true
    },
    {
      "inputs": [],
      "name": "owner",
      "outputs": [
        {
          "internalType": "address payable",
          "name": "",
          "type": "address"
        }
      ],
      "stateMutability": "view",
      "type": "function",
      "constant": true
    },
    {
      "inputs": [],
      "name": "sellPrice",
      "outputs": [
        {
          "internalType": "uint256",
          "name": "",
          "type": "uint256"
        }
      ],
      "stateMutability": "view",
      "type": "function",
      "constant": true
    },
    {
      "inputs": [],
      "name": "symbol",
      "outputs": [
        {
          "internalType": "string",
          "name": "",
          "type": "string"
        }
      ],
      "stateMutability": "view",
      "type": "function",
      "constant": true
    },
    {
      "inputs": [],
      "name": "totalSupply",
      "outputs": [
        {
          "internalType": "uint256",
          "name": "",
          "type": "uint256"
        }
      ],
      "stateMutability": "view",
      "type": "function",
      "constant": true
    },
    {
      "inputs": [
        {
          "internalType": "address",
          "name": "recipient",
          "type": "address"
        },
        {
          "internalType": "uint256",
          "name": "amount",
          "type": "uint256"
        }
      ],
      "name": "transfer",
      "outputs": [
        {
          "internalType": "bool",
          "name": "",
          "type": "bool"
        }
      ],
      "stateMutability": "nonpayable",
      "type": "function"
    },
    {
      "inputs": [
        {
          "internalType": "address",
          "name": "sender",
          "type": "address"
        },
        {
          "internalType": "address",
          "name": "recipient",
          "type": "address"
        },
        {
          "internalType": "uint256",
          "name": "amount",
          "type": "uint256"
        }
      ],
      "name": "transferFrom",
      "outputs": [
        {
          "internalType": "bool",
          "name": "",
          "type": "bool"
        }
      ],
      "stateMutability": "nonpayable",
      "type": "function"
    },
    {
      "inputs": [
        {
          "internalType": "uint256",
          "name": "amount",
          "type": "uint256"
        }
      ],
      "name": "refill",
      "outputs": [],
      "stateMutability": "nonpayable",
      "type": "function"
    },
    {
      "inputs": [
        {
          "internalType": "uint256",
          "name": "_amount",
          "type": "uint256"
        }
      ],
      "name": "refillEthers",
      "outputs": [],
      "stateMutability": "payable",
      "type": "function",
      "payable": true
    },
    {
      "inputs": [
        {
          "internalType": "uint256",
          "name": "_amount",
          "type": "uint256"
        }
      ],
      "name": "refillHealthPotion",
      "outputs": [],
      "stateMutability": "nonpayable",
      "type": "function"
    },
    {
      "inputs": [
        {
          "internalType": "uint256",
          "name": "_amount",
          "type": "uint256"
        }
      ],
      "name": "refillManaPotion",
      "outputs": [],
      "stateMutability": "nonpayable",
      "type": "function"
    },
    {
      "inputs": [
        {
          "internalType": "uint256",
          "name": "amount",
          "type": "uint256"
        }
      ],
      "name": "buyCoin",
      "outputs": [],
      "stateMutability": "payable",
      "type": "function",
      "payable": true
    },
    {
      "inputs": [
        {
          "internalType": "uint256",
          "name": "amount",
          "type": "uint256"
        }
      ],
      "name": "buyMana",
      "outputs": [],
      "stateMutability": "payable",
      "type": "function",
      "payable": true
    },
    {
      "inputs": [
        {
          "internalType": "uint256",
          "name": "amount",
          "type": "uint256"
        }
      ],
      "name": "buyHealth",
      "outputs": [],
      "stateMutability": "payable",
      "type": "function",
      "payable": true
    },
    {
      "inputs": [
        {
          "internalType": "uint256",
          "name": "_amount",
          "type": "uint256"
        }
      ],
      "name": "sellCoin",
      "outputs": [],
      "stateMutability": "payable",
      "type": "function",
      "payable": true
    },
    {
      "inputs": [
        {
          "internalType": "uint256",
          "name": "_amount",
          "type": "uint256"
        }
      ],
      "name": "withdraw",
      "outputs": [],
      "stateMutability": "nonpayable",
      "type": "function"
    },
    {
      "inputs": [],
      "name": "viewMachineEthers",
      "outputs": [
        {
          "internalType": "uint256",
          "name": "",
          "type": "uint256"
        }
      ],
      "stateMutability": "view",
      "type": "function",
      "constant": true
    },
    {
      "inputs": [
        {
          "internalType": "uint256",
          "name": "_price",
          "type": "uint256"
        }
      ],
      "name": "changeBuyPrice",
      "outputs": [],
      "stateMutability": "nonpayable",
      "type": "function"
    },
    {
      "inputs": [
        {
          "internalType": "uint256",
          "name": "_price",
          "type": "uint256"
        }
      ],
      "name": "changeSellPrice",
      "outputs": [],
      "stateMutability": "nonpayable",
      "type": "function"
    },
    {
      "inputs": [
        {
          "internalType": "uint256",
          "name": "_price",
          "type": "uint256"
        }
      ],
      "name": "changeHealthPrice",
      "outputs": [],
      "stateMutability": "nonpayable",
      "type": "function"
    },
    {
      "inputs": [
        {
          "internalType": "uint256",
          "name": "_price",
          "type": "uint256"
        }
      ],
      "name": "changeManaPrice",
      "outputs": [],
      "stateMutability": "nonpayable",
      "type": "function"
    }
  ],
  "bytecode": "0x6080604052600160085560016009553480156200001b57600080fd5b506040518060400160405280600881526020017f506f6b65436f696e0000000000000000000000000000000000000000000000008152506040518060400160405280600381526020017f504b4300000000000000000000000000000000000000000000000000000000008152508160039081620000999190620005f6565b508060049081620000ab9190620005f6565b505050620000c2336103e8620001fa60201b60201c565b33600560006101000a81548173ffffffffffffffffffffffffffffffffffffffff021916908373ffffffffffffffffffffffffffffffffffffffff1602179055506064600c60003073ffffffffffffffffffffffffffffffffffffffff1673ffffffffffffffffffffffffffffffffffffffff168152602001908152602001600020819055506064600b60003073ffffffffffffffffffffffffffffffffffffffff1673ffffffffffffffffffffffffffffffffffffffff168152602001908152602001600020819055506064600a6000600560009054906101000a900473ffffffffffffffffffffffffffffffffffffffff1673ffffffffffffffffffffffffffffffffffffffff1673ffffffffffffffffffffffffffffffffffffffff168152602001908152602001600020819055506200081e565b600073ffffffffffffffffffffffffffffffffffffffff168273ffffffffffffffffffffffffffffffffffffffff16036200026c576040517f08c379a0000000000000000000000000000000000000000000000000000000008152600401620002639062000764565b60405180910390fd5b62000280600083836200037260201b60201c565b8060026000828254620002949190620007b5565b92505081905550806000808473ffffffffffffffffffffffffffffffffffffffff1673ffffffffffffffffffffffffffffffffffffffff1681526020019081526020016000206000828254620002eb9190620007b5565b925050819055508173ffffffffffffffffffffffffffffffffffffffff16600073ffffffffffffffffffffffffffffffffffffffff167fddf252ad1be2c89b69c2b068fc378daa952ba7f163c4a11628f55a4df523b3ef8360405162000352919062000801565b60405180910390a36200036e600083836200037760201b60201c565b5050565b505050565b505050565b600081519050919050565b7f4e487b7100000000000000000000000000000000000000000000000000000000600052604160045260246000fd5b7f4e487b7100000000000000000000000000000000000000000000000000000000600052602260045260246000fd5b60006002820490506001821680620003fe57607f821691505b602082108103620004145762000413620003b6565b5b50919050565b60008190508160005260206000209050919050565b60006020601f8301049050919050565b600082821b905092915050565b6000600883026200047e7fffffffffffffffffffffffffffffffffffffffffffffffffffffffffffffffff826200043f565b6200048a86836200043f565b95508019841693508086168417925050509392505050565b6000819050919050565b6000819050919050565b6000620004d7620004d1620004cb84620004a2565b620004ac565b620004a2565b9050919050565b6000819050919050565b620004f383620004b6565b6200050b6200050282620004de565b8484546200044c565b825550505050565b600090565b6200052262000513565b6200052f818484620004e8565b505050565b5b8181101562000557576200054b60008262000518565b60018101905062000535565b5050565b601f821115620005a65762000570816200041a565b6200057b846200042f565b810160208510156200058b578190505b620005a36200059a856200042f565b83018262000534565b50505b505050565b600082821c905092915050565b6000620005cb60001984600802620005ab565b1980831691505092915050565b6000620005e68383620005b8565b9150826002028217905092915050565b62000601826200037c565b67ffffffffffffffff8111156200061d576200061c62000387565b5b620006298254620003e5565b620006368282856200055b565b600060209050601f8311600181146200066e576000841562000659578287015190505b620006658582620005d8565b865550620006d5565b601f1984166200067e866200041a565b60005b82811015620006a85784890151825560018201915060208501945060208101905062000681565b86831015620006c85784890151620006c4601f891682620005b8565b8355505b6001600288020188555050505b505050505050565b600082825260208201905092915050565b7f4e616f206520706f73736976656c20637269617220746f6b656e73206e6f206560008201527f6e64657265636f20300000000000000000000000000000000000000000000000602082015250565b60006200074c602983620006dd565b91506200075982620006ee565b604082019050919050565b600060208201905081810360008301526200077f816200073d565b9050919050565b7f4e487b7100000000000000000000000000000000000000000000000000000000600052601160045260246000fd5b6000620007c282620004a2565b9150620007cf83620004a2565b9250828201905080821115620007ea57620007e962000786565b5b92915050565b620007fb81620004a2565b82525050565b6000602082019050620008186000830184620007f0565b92915050565b6135bf806200082e6000396000f3fe6080604052600436106102255760003560e01c806370a0823111610123578063a8baf6b4116100ab578063d28d88521161006f578063d28d885214610833578063dd62ed3e1461085e578063e886d0251461089b578063f3934c8c146108c4578063f612c1e6146108ed57610225565b8063a8baf6b41461074e578063a9059cbb14610777578063ad0f2916146107b4578063b09f1266146107df578063ca9d07ba1461080a57610225565b806398a5b0c4116100f257806398a5b0c414610669578063a263c7ba14610692578063a457c2d7146106bb578063a66d4ba7146106f8578063a7dd5b5b1461072357610225565b806370a08231146105ba57806387792574146105f75780638da5cb5b1461061357806395d89b411461063e57610225565b806339509351116101b15780634b750334116101755780634b750334146104bc57806358fedf01146104e7578063662720b3146105245780636ebcf607146105615780636f48f4791461059e57610225565b806339509351146103d25780633cf6104b1461040f5780633de223f3146104385780633eaaf86b14610454578063465c96a81461047f57610225565b80631b6e1d51116101f85780631b6e1d51146102fa57806323b872dd146103255780632c6cae36146103625780632e1a7d4d1461037e578063313ce567146103a757610225565b8063024c2ddd1461022a57806306fdde0314610267578063095ea7b31461029257806318160ddd146102cf575b600080fd5b34801561023657600080fd5b50610251600480360381019061024c91906126a6565b610909565b60405161025e91906126ff565b60405180910390f35b34801561027357600080fd5b5061027c61092e565b60405161028991906127aa565b60405180910390f35b34801561029e57600080fd5b506102b960048036038101906102b491906127f8565b6109c0565b6040516102c69190612853565b60405180910390f35b3480156102db57600080fd5b506102e46109de565b6040516102f191906126ff565b60405180910390f35b34801561030657600080fd5b5061030f6109e8565b60405161031c91906126ff565b60405180910390f35b34801561033157600080fd5b5061034c6004803603810190610347919061286e565b6109f0565b6040516103599190612853565b60405180910390f35b61037c600480360381019061037791906128c1565b610ae8565b005b34801561038a57600080fd5b506103a560048036038101906103a091906128c1565b610c67565b005b3480156103b357600080fd5b506103bc610db9565b6040516103c9919061290a565b60405180910390f35b3480156103de57600080fd5b506103f960048036038101906103f491906127f8565b610dc2565b6040516104069190612853565b60405180910390f35b34801561041b57600080fd5b50610436600480360381019061043191906128c1565b610e6e565b005b610452600480360381019061044d91906128c1565b610f9a565b005b34801561046057600080fd5b50610469611206565b60405161047691906126ff565b60405180910390f35b34801561048b57600080fd5b506104a660048036038101906104a19190612925565b61120c565b6040516104b391906126ff565b60405180910390f35b3480156104c857600080fd5b506104d1611224565b6040516104de91906126ff565b60405180910390f35b3480156104f357600080fd5b5061050e60048036038101906105099190612925565b61122a565b60405161051b91906126ff565b60405180910390f35b34801561053057600080fd5b5061054b60048036038101906105469190612925565b611242565b60405161055891906126ff565b60405180910390f35b34801561056d57600080fd5b5061058860048036038101906105839190612925565b61125a565b60405161059591906126ff565b60405180910390f35b6105b860048036038101906105b391906128c1565b611272565b005b3480156105c657600080fd5b506105e160048036038101906105dc9190612925565b6114de565b6040516105ee91906126ff565b60405180910390f35b610611600480360381019061060c91906128c1565b611526565b005b34801561061f57600080fd5b506106286116b2565b6040516106359190612973565b60405180910390f35b34801561064a57600080fd5b506106536116d8565b60405161066091906127aa565b60405180910390f35b34801561067557600080fd5b50610690600480360381019061068b91906128c1565b61176a565b005b34801561069e57600080fd5b506106b960048036038101906106b491906128c1565b61185c565b005b3480156106c757600080fd5b506106e260048036038101906106dd91906127f8565b61194e565b6040516106ef9190612853565b60405180910390f35b34801561070457600080fd5b5061070d611a39565b60405161071a91906126ff565b60405180910390f35b34801561072f57600080fd5b50610738611a3f565b60405161074591906126ff565b60405180910390f35b34801561075a57600080fd5b50610775600480360381019061077091906128c1565b611a45565b005b34801561078357600080fd5b5061079e600480360381019061079991906127f8565b611b71565b6040516107ab9190612853565b60405180910390f35b3480156107c057600080fd5b506107c9611b8f565b6040516107d691906126ff565b60405180910390f35b3480156107eb57600080fd5b506107f4611b95565b60405161080191906127aa565b60405180910390f35b34801561081657600080fd5b50610831600480360381019061082c91906128c1565b611c23565b005b34801561083f57600080fd5b50610848611dc1565b60405161085591906127aa565b60405180910390f35b34801561086a57600080fd5b50610885600480360381019061088091906126a6565b611e4f565b60405161089291906126ff565b60405180910390f35b3480156108a757600080fd5b506108c260048036038101906108bd91906128c1565b611ed6565b005b3480156108d057600080fd5b506108eb60048036038101906108e691906128c1565b611fc8565b005b610907600480360381019061090291906128c1565b6120ba565b005b6001602052816000526040600020602052806000526040600020600091509150505481565b60606003805461093d906129bd565b80601f0160208091040260200160405190810160405280929190818152602001828054610969906129bd565b80156109b65780601f1061098b576101008083540402835291602001916109b6565b820191906000526020600020905b81548152906001019060200180831161099957829003601f168201915b5050505050905090565b60006109d46109cd6121e9565b84846121f1565b6001905092915050565b6000600254905090565b600047905090565b60006109fd8484846123ba565b6000600160008673ffffffffffffffffffffffffffffffffffffffff1673ffffffffffffffffffffffffffffffffffffffff1681526020019081526020016000206000610a486121e9565b73ffffffffffffffffffffffffffffffffffffffff1673ffffffffffffffffffffffffffffffffffffffff16815260200190815260200160002054905082811015610ac8576040517f08c379a0000000000000000000000000000000000000000000000000000000008152600401610abf90612a60565b60405180910390fd5b610adc85610ad46121e9565b8584036121f1565b60019150509392505050565b80600a60003373ffffffffffffffffffffffffffffffffffffffff1673ffffffffffffffffffffffffffffffffffffffff168152602001908152602001600020541015610b6a576040517f08c379a0000000000000000000000000000000000000000000000000000000008152600401610b6190612acc565b60405180910390fd5b80471015610bad576040517f08c379a0000000000000000000000000000000000000000000000000000000008152600401610ba490612b5e565b60405180910390fd5b610bb83330836123ba565b80600a60003373ffffffffffffffffffffffffffffffffffffffff1673ffffffffffffffffffffffffffffffffffffffff1681526020019081526020016000206000828254610c079190612bad565b9250508190555080600a60003073ffffffffffffffffffffffffffffffffffffffff1673ffffffffffffffffffffffffffffffffffffffff1681526020019081526020016000206000828254610c5d9190612be1565b9250508190555050565b600560009054906101000a900473ffffffffffffffffffffffffffffffffffffffff1673ffffffffffffffffffffffffffffffffffffffff163373ffffffffffffffffffffffffffffffffffffffff1614610cf7576040517f08c379a0000000000000000000000000000000000000000000000000000000008152600401610cee90612c87565b60405180910390fd5b80471015610d3a576040517f08c379a0000000000000000000000000000000000000000000000000000000008152600401610d3190612b5e565b60405180910390fd5b600560009054906101000a900473ffffffffffffffffffffffffffffffffffffffff1673ffffffffffffffffffffffffffffffffffffffff166108fc670de0b6b3a764000083610d8a9190612ca7565b9081150290604051600060405180830381858888f19350505050158015610db5573d6000803e3d6000fd5b5050565b60006012905090565b6000610e64610dcf6121e9565b848460016000610ddd6121e9565b73ffffffffffffffffffffffffffffffffffffffff1673ffffffffffffffffffffffffffffffffffffffff16815260200190815260200160002060008873ffffffffffffffffffffffffffffffffffffffff1673ffffffffffffffffffffffffffffffffffffffff16815260200190815260200160002054610e5f9190612be1565b6121f1565b6001905092915050565b600560009054906101000a900473ffffffffffffffffffffffffffffffffffffffff1673ffffffffffffffffffffffffffffffffffffffff163373ffffffffffffffffffffffffffffffffffffffff1614610efe576040517f08c379a0000000000000000000000000000000000000000000000000000000008152600401610ef590612c87565b60405180910390fd5b60008111610f41576040517f08c379a0000000000000000000000000000000000000000000000000000000008152600401610f3890612d73565b60405180910390fd5b80600c60003073ffffffffffffffffffffffffffffffffffffffff1673ffffffffffffffffffffffffffffffffffffffff1681526020019081526020016000206000828254610f909190612be1565b9250508190555050565b80600b60003073ffffffffffffffffffffffffffffffffffffffff1673ffffffffffffffffffffffffffffffffffffffff16815260200190815260200160002054101561101c576040517f08c379a000000000000000000000000000000000000000000000000000000000815260040161101390612e05565b60405180910390fd5b6009548161102a9190612ca7565b600a60003073ffffffffffffffffffffffffffffffffffffffff1673ffffffffffffffffffffffffffffffffffffffff1681526020019081526020016000205410156110ab576040517f08c379a00000000000000000000000000000000000000000000000000000000081526004016110a290612e97565b60405180910390fd5b80600a60003073ffffffffffffffffffffffffffffffffffffffff1673ffffffffffffffffffffffffffffffffffffffff16815260200190815260200160002060008282546110fa9190612be1565b9250508190555080600a60003373ffffffffffffffffffffffffffffffffffffffff1673ffffffffffffffffffffffffffffffffffffffff16815260200190815260200160002060008282546111509190612bad565b9250508190555080600b60003073ffffffffffffffffffffffffffffffffffffffff1673ffffffffffffffffffffffffffffffffffffffff16815260200190815260200160002060008282546111a69190612bad565b9250508190555080600b60003373ffffffffffffffffffffffffffffffffffffffff1673ffffffffffffffffffffffffffffffffffffffff16815260200190815260200160002060008282546111fc9190612bad565b9250508190555050565b60025481565b600a6020528060005260406000206000915090505481565b60075481565b600b6020528060005260406000206000915090505481565b600c6020528060005260406000206000915090505481565b60006020528060005260406000206000915090505481565b80600c60003073ffffffffffffffffffffffffffffffffffffffff1673ffffffffffffffffffffffffffffffffffffffff1681526020019081526020016000205410156112f4576040517f08c379a00000000000000000000000000000000000000000000000000000000081526004016112eb90612e05565b60405180910390fd5b600854816113029190612ca7565b600a60003073ffffffffffffffffffffffffffffffffffffffff1673ffffffffffffffffffffffffffffffffffffffff168152602001908152602001600020541015611383576040517f08c379a000000000000000000000000000000000000000000000000000000000815260040161137a90612e97565b60405180910390fd5b80600a60003073ffffffffffffffffffffffffffffffffffffffff1673ffffffffffffffffffffffffffffffffffffffff16815260200190815260200160002060008282546113d29190612be1565b9250508190555080600a60003373ffffffffffffffffffffffffffffffffffffffff1673ffffffffffffffffffffffffffffffffffffffff16815260200190815260200160002060008282546114289190612bad565b9250508190555080600c60003073ffffffffffffffffffffffffffffffffffffffff1673ffffffffffffffffffffffffffffffffffffffff168152602001908152602001600020600082825461147e9190612bad565b9250508190555080600c60003373ffffffffffffffffffffffffffffffffffffffff1673ffffffffffffffffffffffffffffffffffffffff16815260200190815260200160002060008282546114d49190612bad565b9250508190555050565b60008060008373ffffffffffffffffffffffffffffffffffffffff1673ffffffffffffffffffffffffffffffffffffffff168152602001908152602001600020549050919050565b600654816115349190612ca7565b341015611576576040517f08c379a000000000000000000000000000000000000000000000000000000000815260040161156d90612f03565b60405180910390fd5b80600a60003073ffffffffffffffffffffffffffffffffffffffff1673ffffffffffffffffffffffffffffffffffffffff1681526020019081526020016000205410156115f8576040517f08c379a00000000000000000000000000000000000000000000000000000000081526004016115ef90612f95565b60405180910390fd5b6116033033836123ba565b80600a60003073ffffffffffffffffffffffffffffffffffffffff1673ffffffffffffffffffffffffffffffffffffffff16815260200190815260200160002060008282546116529190612bad565b9250508190555080600a60003373ffffffffffffffffffffffffffffffffffffffff1673ffffffffffffffffffffffffffffffffffffffff16815260200190815260200160002060008282546116a89190612be1565b9250508190555050565b600560009054906101000a900473ffffffffffffffffffffffffffffffffffffffff1681565b6060600480546116e7906129bd565b80601f0160208091040260200160405190810160405280929190818152602001828054611713906129bd565b80156117605780601f1061173557610100808354040283529160200191611760565b820191906000526020600020905b81548152906001019060200180831161174357829003601f168201915b5050505050905090565b600560009054906101000a900473ffffffffffffffffffffffffffffffffffffffff1673ffffffffffffffffffffffffffffffffffffffff163373ffffffffffffffffffffffffffffffffffffffff16146117fa576040517f08c379a00000000000000000000000000000000000000000000000000000000081526004016117f190612c87565b60405180910390fd5b806000811161183e576040517f08c379a000000000000000000000000000000000000000000000000000000000815260040161183590613001565b60405180910390fd5b670de0b6b3a7640000826118529190612ca7565b6009819055505050565b600560009054906101000a900473ffffffffffffffffffffffffffffffffffffffff1673ffffffffffffffffffffffffffffffffffffffff163373ffffffffffffffffffffffffffffffffffffffff16146118ec576040517f08c379a00000000000000000000000000000000000000000000000000000000081526004016118e390612c87565b60405180910390fd5b8060008111611930576040517f08c379a000000000000000000000000000000000000000000000000000000000815260040161192790613001565b60405180910390fd5b670de0b6b3a7640000826119449190612ca7565b6006819055505050565b6000806001600061195d6121e9565b73ffffffffffffffffffffffffffffffffffffffff1673ffffffffffffffffffffffffffffffffffffffff16815260200190815260200160002060008573ffffffffffffffffffffffffffffffffffffffff1673ffffffffffffffffffffffffffffffffffffffff16815260200190815260200160002054905082811015611a1a576040517f08c379a0000000000000000000000000000000000000000000000000000000008152600401611a119061306d565b60405180910390fd5b611a2e611a256121e9565b858584036121f1565b600191505092915050565b60095481565b60085481565b600560009054906101000a900473ffffffffffffffffffffffffffffffffffffffff1673ffffffffffffffffffffffffffffffffffffffff163373ffffffffffffffffffffffffffffffffffffffff1614611ad5576040517f08c379a0000000000000000000000000000000000000000000000000000000008152600401611acc90612c87565b60405180910390fd5b60008111611b18576040517f08c379a0000000000000000000000000000000000000000000000000000000008152600401611b0f90612d73565b60405180910390fd5b80600b60003073ffffffffffffffffffffffffffffffffffffffff1673ffffffffffffffffffffffffffffffffffffffff1681526020019081526020016000206000828254611b679190612be1565b9250508190555050565b6000611b85611b7e6121e9565b84846123ba565b6001905092915050565b60065481565b60048054611ba2906129bd565b80601f0160208091040260200160405190810160405280929190818152602001828054611bce906129bd565b8015611c1b5780601f10611bf057610100808354040283529160200191611c1b565b820191906000526020600020905b815481529060010190602001808311611bfe57829003601f168201915b505050505081565b600560009054906101000a900473ffffffffffffffffffffffffffffffffffffffff1673ffffffffffffffffffffffffffffffffffffffff163373ffffffffffffffffffffffffffffffffffffffff1614611cb3576040517f08c379a0000000000000000000000000000000000000000000000000000000008152600401611caa90612c87565b60405180910390fd5b80611cbd336114de565b1015611cfe576040517f08c379a0000000000000000000000000000000000000000000000000000000008152600401611cf5906130ff565b60405180910390fd5b60008111611d41576040517f08c379a0000000000000000000000000000000000000000000000000000000008152600401611d3890613191565b60405180910390fd5b611d4c3330836123ba565b80600a60003073ffffffffffffffffffffffffffffffffffffffff1673ffffffffffffffffffffffffffffffffffffffff1681526020019081526020016000206000828254611d9b9190612be1565b9250508190555066038d7ea4c6800060068190555066038d7ea4c6800060078190555050565b60038054611dce906129bd565b80601f0160208091040260200160405190810160405280929190818152602001828054611dfa906129bd565b8015611e475780601f10611e1c57610100808354040283529160200191611e47565b820191906000526020600020905b815481529060010190602001808311611e2a57829003601f168201915b505050505081565b6000600160008473ffffffffffffffffffffffffffffffffffffffff1673ffffffffffffffffffffffffffffffffffffffff16815260200190815260200160002060008373ffffffffffffffffffffffffffffffffffffffff1673ffffffffffffffffffffffffffffffffffffffff16815260200190815260200160002054905092915050565b600560009054906101000a900473ffffffffffffffffffffffffffffffffffffffff1673ffffffffffffffffffffffffffffffffffffffff163373ffffffffffffffffffffffffffffffffffffffff1614611f66576040517f08c379a0000000000000000000000000000000000000000000000000000000008152600401611f5d90612c87565b60405180910390fd5b8060008111611faa576040517f08c379a0000000000000000000000000000000000000000000000000000000008152600401611fa190613001565b60405180910390fd5b670de0b6b3a764000082611fbe9190612ca7565b6008819055505050565b600560009054906101000a900473ffffffffffffffffffffffffffffffffffffffff1673ffffffffffffffffffffffffffffffffffffffff163373ffffffffffffffffffffffffffffffffffffffff1614612058576040517f08c379a000000000000000000000000000000000000000000000000000000000815260040161204f90612c87565b60405180910390fd5b806000811161209c576040517f08c379a000000000000000000000000000000000000000000000000000000000815260040161209390613001565b60405180910390fd5b670de0b6b3a7640000826120b09190612ca7565b6007819055505050565b600560009054906101000a900473ffffffffffffffffffffffffffffffffffffffff1673ffffffffffffffffffffffffffffffffffffffff163373ffffffffffffffffffffffffffffffffffffffff161461214a576040517f08c379a000000000000000000000000000000000000000000000000000000000815260040161214190612c87565b60405180910390fd5b6000811161218d576040517f08c379a000000000000000000000000000000000000000000000000000000000815260040161218490613223565b60405180910390fd5b803373ffffffffffffffffffffffffffffffffffffffff1631116121e6576040517f08c379a00000000000000000000000000000000000000000000000000000000081526004016121dd906132b5565b60405180910390fd5b50565b600033905090565b600073ffffffffffffffffffffffffffffffffffffffff168373ffffffffffffffffffffffffffffffffffffffff1603612260576040517f08c379a000000000000000000000000000000000000000000000000000000000815260040161225790613347565b60405180910390fd5b600073ffffffffffffffffffffffffffffffffffffffff168273ffffffffffffffffffffffffffffffffffffffff16036122cf576040517f08c379a00000000000000000000000000000000000000000000000000000000081526004016122c6906133d9565b60405180910390fd5b80600160008573ffffffffffffffffffffffffffffffffffffffff1673ffffffffffffffffffffffffffffffffffffffff16815260200190815260200160002060008473ffffffffffffffffffffffffffffffffffffffff1673ffffffffffffffffffffffffffffffffffffffff168152602001908152602001600020819055508173ffffffffffffffffffffffffffffffffffffffff168373ffffffffffffffffffffffffffffffffffffffff167f8c5be1e5ebec7d5bd14f71427d1e84f3dd0314c0f7b2291e5b200ac8c7c3b925836040516123ad91906126ff565b60405180910390a3505050565b600073ffffffffffffffffffffffffffffffffffffffff168373ffffffffffffffffffffffffffffffffffffffff1603612429576040517f08c379a00000000000000000000000000000000000000000000000000000000081526004016124209061346b565b60405180910390fd5b600073ffffffffffffffffffffffffffffffffffffffff168273ffffffffffffffffffffffffffffffffffffffff1603612498576040517f08c379a000000000000000000000000000000000000000000000000000000000815260040161248f906134fd565b60405180910390fd5b6124a3838383612639565b60008060008573ffffffffffffffffffffffffffffffffffffffff1673ffffffffffffffffffffffffffffffffffffffff16815260200190815260200160002054905081811015612529576040517f08c379a000000000000000000000000000000000000000000000000000000000815260040161252090613569565b60405180910390fd5b8181036000808673ffffffffffffffffffffffffffffffffffffffff1673ffffffffffffffffffffffffffffffffffffffff16815260200190815260200160002081905550816000808573ffffffffffffffffffffffffffffffffffffffff1673ffffffffffffffffffffffffffffffffffffffff16815260200190815260200160002060008282546125bc9190612be1565b925050819055508273ffffffffffffffffffffffffffffffffffffffff168473ffffffffffffffffffffffffffffffffffffffff167fddf252ad1be2c89b69c2b068fc378daa952ba7f163c4a11628f55a4df523b3ef8460405161262091906126ff565b60405180910390a361263384848461263e565b50505050565b505050565b505050565b600080fd5b600073ffffffffffffffffffffffffffffffffffffffff82169050919050565b600061267382612648565b9050919050565b61268381612668565b811461268e57600080fd5b50565b6000813590506126a08161267a565b92915050565b600080604083850312156126bd576126bc612643565b5b60006126cb85828601612691565b92505060206126dc85828601612691565b9150509250929050565b6000819050919050565b6126f9816126e6565b82525050565b600060208201905061271460008301846126f0565b92915050565b600081519050919050565b600082825260208201905092915050565b60005b83811015612754578082015181840152602081019050612739565b60008484015250505050565b6000601f19601f8301169050919050565b600061277c8261271a565b6127868185612725565b9350612796818560208601612736565b61279f81612760565b840191505092915050565b600060208201905081810360008301526127c48184612771565b905092915050565b6127d5816126e6565b81146127e057600080fd5b50565b6000813590506127f2816127cc565b92915050565b6000806040838503121561280f5761280e612643565b5b600061281d85828601612691565b925050602061282e858286016127e3565b9150509250929050565b60008115159050919050565b61284d81612838565b82525050565b60006020820190506128686000830184612844565b92915050565b60008060006060848603121561288757612886612643565b5b600061289586828701612691565b93505060206128a686828701612691565b92505060406128b7868287016127e3565b9150509250925092565b6000602082840312156128d7576128d6612643565b5b60006128e5848285016127e3565b91505092915050565b600060ff82169050919050565b612904816128ee565b82525050565b600060208201905061291f60008301846128fb565b92915050565b60006020828403121561293b5761293a612643565b5b600061294984828501612691565b91505092915050565b600061295d82612648565b9050919050565b61296d81612952565b82525050565b60006020820190506129886000830184612964565b92915050565b7f4e487b7100000000000000000000000000000000000000000000000000000000600052602260045260246000fd5b600060028204905060018216806129d557607f821691505b6020821081036129e8576129e761298e565b5b50919050565b7f56616c6f7220696e737566696369656e74652070617261207265616c697a617260008201527f2061207472616e73666572656e63696100000000000000000000000000000000602082015250565b6000612a4a603083612725565b9150612a55826129ee565b604082019050919050565b60006020820190508181036000830152612a7981612a3d565b9050919050565b7f566f6365206e616f2074656d20746f6b656e7320737566696369656e74657321600082015250565b6000612ab6602083612725565b9150612ac182612a80565b602082019050919050565b60006020820190508181036000830152612ae581612aa9565b9050919050565b7f41206d617175696e61206e616f2074656d206574686572206f2073756669636960008201527f656e746521000000000000000000000000000000000000000000000000000000602082015250565b6000612b48602583612725565b9150612b5382612aec565b604082019050919050565b60006020820190508181036000830152612b7781612b3b565b9050919050565b7f4e487b7100000000000000000000000000000000000000000000000000000000600052601160045260246000fd5b6000612bb8826126e6565b9150612bc3836126e6565b9250828203905081811115612bdb57612bda612b7e565b5b92915050565b6000612bec826126e6565b9150612bf7836126e6565b9250828201905080821115612c0f57612c0e612b7e565b5b92915050565b7f4170656e6173206f2061646d696e20706f6465207265616c697a61722065737360008201527f61206f7065726163616f21000000000000000000000000000000000000000000602082015250565b6000612c71602b83612725565b9150612c7c82612c15565b604082019050919050565b60006020820190508181036000830152612ca081612c64565b9050919050565b6000612cb2826126e6565b9150612cbd836126e6565b9250817fffffffffffffffffffffffffffffffffffffffffffffffffffffffffffffffff0483118215151615612cf657612cf5612b7e565b5b828202905092915050565b7f4e616f206520706f73736976656c2061646963696f6e6172203020706f636f6560008201527f7321000000000000000000000000000000000000000000000000000000000000602082015250565b6000612d5d602283612725565b9150612d6882612d01565b604082019050919050565b60006020820190508181036000830152612d8c81612d50565b9050919050565b7f4e6f73736f206573746f717565206e616f2074656d20706f636f65732073756660008201527f696369656e746573210000000000000000000000000000000000000000000000602082015250565b6000612def602983612725565b9150612dfa82612d93565b604082019050919050565b60006020820190508181036000830152612e1e81612de2565b9050919050565b7f566f6365206e616f2074656d20746f6b656e7320737566696369656e7465732060008201527f70617261207265616c697a6172206573736120636f6d70726100000000000000602082015250565b6000612e81603983612725565b9150612e8c82612e25565b604082019050919050565b60006020820190508181036000830152612eb081612e74565b9050919050565b7f4f2076616c6f72206520696e737566696369656e746521000000000000000000600082015250565b6000612eed601783612725565b9150612ef882612eb7565b602082019050919050565b60006020820190508181036000830152612f1c81612ee0565b9050919050565b7f41206d617175696e61206e616f2074656d20746f6b656e73206f20737566696360008201527f69656e7465000000000000000000000000000000000000000000000000000000602082015250565b6000612f7f602583612725565b9150612f8a82612f23565b604082019050919050565b60006020820190508181036000830152612fae81612f72565b9050919050565b7f4f2076616c6f72206e616f20706f646520736572203021000000000000000000600082015250565b6000612feb601783612725565b9150612ff682612fb5565b602082019050919050565b6000602082019050818103600083015261301a81612fde565b9050919050565b7f546f6b656e7320696e737566696369656e746573000000000000000000000000600082015250565b6000613057601483612725565b915061306282613021565b602082019050919050565b600060208201905081810360008301526130868161304a565b9050919050565b7f566f6365206e616f2074656d20746f6b656e7320737566696369656e7465732060008201527f70617261207265616c697a61722065737361206f7065726163616f2100000000602082015250565b60006130e9603c83612725565b91506130f48261308d565b604082019050919050565b60006020820190508181036000830152613118816130dc565b9050919050565b7f566f6365206e616f20706f6465207265636172726567617220206d617175696e60008201527f6120636f6d203020746f6b656e73210000000000000000000000000000000000602082015250565b600061317b602f83612725565b91506131868261311f565b604082019050919050565b600060208201905081810360008301526131aa8161316e565b9050919050565b7f566f6365206e616f20706f646520726563617272656761722061206d6171756960008201527f6e6120636f6d2030204574686572730000000000000000000000000000000000602082015250565b600061320d602f83612725565b9150613218826131b1565b604082019050919050565b6000602082019050818103600083015261323c81613200565b9050919050565b7f766f6365206e616f2074656d2065737361207175616e7469646164652064652060008201527f4574686572730000000000000000000000000000000000000000000000000000602082015250565b600061329f602683612725565b91506132aa82613243565b604082019050919050565b600060208201905081810360008301526132ce81613292565b9050919050565b7f4f2061646d696e206e616f20706f646520736572206f20656e64657265636f2060008201527f3000000000000000000000000000000000000000000000000000000000000000602082015250565b6000613331602183612725565b915061333c826132d5565b604082019050919050565b6000602082019050818103600083015261336081613324565b9050919050565b7f4e616f20706f64656d6f7320656e766961722070617261206f20656e6465726560008201527f636f203000000000000000000000000000000000000000000000000000000000602082015250565b60006133c3602483612725565b91506133ce82613367565b604082019050919050565b600060208201905081810360008301526133f2816133b6565b9050919050565b7f566f6365206e616f20706f6465207265636562657220646f20656e646572656360008201527f6f20300000000000000000000000000000000000000000000000000000000000602082015250565b6000613455602383612725565b9150613460826133f9565b604082019050919050565b6000602082019050818103600083015261348481613448565b9050919050565b7f566f6365206e616f20706f6465207472616e7366657269722070617261206f2060008201527f656e64657265636f203000000000000000000000000000000000000000000000602082015250565b60006134e7602a83612725565b91506134f28261348b565b604082019050919050565b60006020820190508181036000830152613516816134da565b9050919050565b7f566f6365206e616f2074656d20746f6b656e7320737566696369656e74657300600082015250565b6000613553601f83612725565b915061355e8261351d565b602082019050919050565b6000602082019050818103600083015261358281613546565b905091905056fea2646970667358221220f5e5c990a7253fa355b40b37b97dade589a694a196202a6ff39cf20934c2742064736f6c63430008100033",
  "immutableReferences": {},
  "source": "// SPDX-License-Identifier: MIT\r\npragma solidity ^0.8.16;\r\n\r\nimport './ERC20.sol';\r\n\r\ncontract PokeStop is ERC20 {\r\n    address payable public owner;\r\n    uint256 public coinPrice;\r\n    uint256 public sellPrice;\r\n    uint256 public ManaPrice = 1;\r\n    uint256 public HealthPrice = 1;\r\n    mapping(address => uint) public MachineBalance;\r\n    mapping(address => uint) public HealthPotion;\r\n    mapping(address => uint) public ManaPotion;\r\n\r\n    constructor() ERC20(\"PokeCoin\", \"PKC\") {\r\n        _mint(msg.sender,1000);\r\n        owner = payable(msg.sender);\r\n        ManaPotion[address(this)] = 100;\r\n        HealthPotion[address(this)] = 100;\r\n        MachineBalance[owner] = 100;\r\n    }\r\n\r\n    modifier isOwner() {\r\n    require(msg.sender == owner , \"Apenas o admin pode realizar essa operacao!\");\r\n    _;\r\n    }\r\n\r\n     modifier validPrice(uint256 _price) {\r\n    require(_price > 0 , \"O valor nao pode ser 0!\");\r\n    _;\r\n    }\r\n\r\n    function refill(uint amount) public isOwner {\r\n        require(balanceOf(msg.sender) >= amount, \"Voce nao tem tokens suficientes para realizar essa operacao!\");\r\n        require(amount>0, \"Voce nao pode recarregar  maquina com 0 tokens!\");\r\n        _transfer(msg.sender, address(this), amount);\r\n        MachineBalance[address(this)] += amount;\r\n        coinPrice = 1000000000000000;\r\n        sellPrice = 1000000000000000;\r\n    }\r\n\r\n    function refillEthers(uint _amount) payable public isOwner{\r\n        require(_amount>0, \"Voce nao pode recarregar a maquina com 0 Ethers\");\r\n        require(msg.sender.balance> _amount, \"voce nao tem essa quantidade de Ethers\");\r\n    }\r\n\r\n    function refillHealthPotion(uint _amount) public isOwner{\r\n        require(_amount > 0, \"Nao e possivel adicionar 0 pocoes!\");\r\n        HealthPotion[address(this)] += _amount;\r\n    }\r\n\r\n    function refillManaPotion(uint _amount) public isOwner{\r\n        require(_amount > 0, \"Nao e possivel adicionar 0 pocoes!\");\r\n        ManaPotion[address(this)] += _amount;\r\n    }\r\n\r\n    function buyCoin (uint amount) payable public {\r\n        require(msg.value >= amount * coinPrice, \"O valor e insuficiente!\");\r\n        require(MachineBalance[address(this)]>=amount, \"A maquina nao tem tokens o suficiente\");\r\n        _transfer(address(this), msg.sender, amount);\r\n        MachineBalance[address(this)] -= amount;\r\n        MachineBalance[msg.sender] += amount;\r\n    }\r\n\r\n    function buyMana (uint amount) payable public {\r\n        require(ManaPotion[address(this)] >= amount, \"Nosso estoque nao tem pocoes suficientes!\");\r\n        require(MachineBalance[address(this)]>= (amount*ManaPrice), \"Voce nao tem tokens suficientes para realizar essa compra\");\r\n        MachineBalance[address(this)] += amount;\r\n        MachineBalance[msg.sender] -= amount;\r\n        ManaPotion[address(this)] -= amount;\r\n        ManaPotion[msg.sender] -= amount;\r\n    }\r\n\r\n    function buyHealth (uint amount) payable public {\r\n        require(HealthPotion[address(this)] >= amount, \"Nosso estoque nao tem pocoes suficientes!\");\r\n        require(MachineBalance[address(this)]>= (amount*HealthPrice), \"Voce nao tem tokens suficientes para realizar essa compra\");\r\n        MachineBalance[address(this)] += amount;\r\n        MachineBalance[msg.sender] -= amount;\r\n        HealthPotion[address(this)] -= amount;\r\n        HealthPotion[msg.sender] -= amount;\r\n    }\r\n\r\n    function sellCoin (uint _amount) payable public {\r\n        require(MachineBalance[msg.sender]>=_amount, \"Voce nao tem tokens suficientes!\");\r\n        require(address(this).balance >= _amount, \"A maquina nao tem ether o suficiente!\");\r\n        _transfer(msg.sender, address(this), _amount);\r\n        MachineBalance[msg.sender] -= _amount;\r\n        MachineBalance[address(this)] += _amount; \r\n    }\r\n\r\n    function withdraw(uint _amount) external isOwner{\r\n        require(address(this).balance >= _amount, \"A maquina nao tem ether o suficiente!\");\r\n        owner.transfer(_amount * 1 ether);\r\n    }\r\n\r\n    function viewMachineEthers() public view returns(uint256){\r\n        return address(this).balance;\r\n    }\r\n\r\n    function changeBuyPrice(uint256 _price) public isOwner validPrice(_price){\r\n        coinPrice = _price * 1 ether;\r\n    }\r\n\r\n    function changeSellPrice(uint256 _price) public isOwner validPrice(_price){\r\n        sellPrice = _price * 1 ether;\r\n    }\r\n\r\n    function changeHealthPrice(uint256 _price) public isOwner validPrice(_price){\r\n        HealthPrice = _price * 1 ether;\r\n    }\r\n\r\n     function changeManaPrice(uint256 _price) public isOwner validPrice(_price){\r\n        ManaPrice = _price * 1 ether;\r\n    }\r\n\r\n    function UseHealth(uint value) private{\r\n        HealthPotion[msg.sender] -= value;\r\n    }\r\n\r\n    function UseMana(uint value) private{\r\n        HealthPotion[msg.sender] -= value;\r\n    }\r\n}",
  "sourcePath": "C:\\Users\\Lucas Matheus\\Documents\\GitHub\\Gama_DesafioFinal\\Coin\\contracts\\PokeStop.sol",
  "compiler": {
    "name": "solc",
    "version": "0.8.16+commit.07a7930e.Emscripten.clang"
  },
  "schemaVersion": "3.4.9",
  "updatedAt": "2022-09-12T06:34:59.174Z",
  "networkType": "ethereum",
  "devdoc": {
    "kind": "dev",
    "methods": {},
    "version": 1
  },
  "userdoc": {
    "kind": "user",
    "methods": {},
    "version": 1
  }
}